{
	"data": {
		"bytecode": {
			"linkReferences": {
				"contracts/KnightLib.sol": {
					"KnightLib": [
						{
							"length": 20,
							"start": 4157
						}
					]
				}
			},
			"object": "60806040523480156200001157600080fd5b5060405162003006380380620030068339818101604052810190620000379190620001bb565b6040518060400160405280600d81526020017f43727970746f4b6e6967687473000000000000000000000000000000000000008152506040518060400160405280600481526020017f434b4e53000000000000000000000000000000000000000000000000000000008152508160009080519060200190620000bb929190620000f4565b508060019080519060200190620000d4929190620000f4565b50505080600781905550670de0b6b3a7640000600881905550506200027b565b8280546200010290620001f7565b90600052602060002090601f01602090048101928262000126576000855562000172565b82601f106200014157805160ff191683800117855562000172565b8280016001018555821562000172579182015b828111156200017157825182559160200191906001019062000154565b5b50905062000181919062000185565b5090565b5b80821115620001a057600081600090555060010162000186565b5090565b600081519050620001b58162000261565b92915050565b600060208284031215620001d457620001d36200025c565b5b6000620001e484828501620001a4565b91505092915050565b6000819050919050565b600060028204905060018216806200021057607f821691505b602082108114156200022757620002266200022d565b5b50919050565b7f4e487b7100000000000000000000000000000000000000000000000000000000600052602260045260246000fd5b600080fd5b6200026c81620001ed565b81146200027857600080fd5b50565b612d7b806200028b6000396000f3fe6080604052600436106101095760003560e01c806370a0823111610095578063b88d4fde11610064578063b88d4fde14610388578063bdb4b848146103b1578063c87b56dd146103dc578063e1fa763814610419578063e985e9c51461044257610109565b806370a08231146102b45780638c1379cc146102f157806395d89b4114610334578063a22cb4651461035f57610109565b80631e661710116100dc5780631e661710146101dc57806323b872dd146101fa57806342842e0e146102235780634a0ef7681461024c5780636352211e1461027757610109565b806301ffc9a71461010e57806306fdde031461014b578063081812fc14610176578063095ea7b3146101b3575b600080fd5b34801561011a57600080fd5b5061013560048036038101906101309190611d2e565b61047f565b604051610142919061219d565b60405180910390f35b34801561015757600080fd5b50610160610561565b60405161016d91906121b8565b60405180910390f35b34801561018257600080fd5b5061019d60048036038101906101989190611d88565b6105f3565b6040516101aa9190612136565b60405180910390f35b3480156101bf57600080fd5b506101da60048036038101906101d59190611cee565b610678565b005b6101e4610790565b6040516101f19190612403565b60405180910390f35b34801561020657600080fd5b50610221600480360381019061021c9190611bd8565b61095c565b005b34801561022f57600080fd5b5061024a60048036038101906102459190611bd8565b6109bc565b005b34801561025857600080fd5b506102616109dc565b60405161026e9190612403565b60405180910390f35b34801561028357600080fd5b5061029e60048036038101906102999190611d88565b6109e2565b6040516102ab9190612136565b60405180910390f35b3480156102c057600080fd5b506102db60048036038101906102d69190611b6b565b610a94565b6040516102e89190612403565b60405180910390f35b3480156102fd57600080fd5b5061031860048036038101906103139190611d88565b610b4c565b60405161032b979695949392919061241e565b60405180910390f35b34801561034057600080fd5b50610349610bcb565b60405161035691906121b8565b60405180910390f35b34801561036b57600080fd5b5061038660048036038101906103819190611cae565b610c5d565b005b34801561039457600080fd5b506103af60048036038101906103aa9190611c2b565b610c73565b005b3480156103bd57600080fd5b506103c6610cd5565b6040516103d39190612403565b60405180910390f35b3480156103e857600080fd5b5061040360048036038101906103fe9190611d88565b610cdb565b60405161041091906121b8565b60405180910390f35b34801561042557600080fd5b50610440600480360381019061043b9190611db5565b610d82565b005b34801561044e57600080fd5b5061046960048036038101906104649190611b98565b610e4b565b604051610476919061219d565b60405180910390f35b60007f80ac58cd000000000000000000000000000000000000000000000000000000007bffffffffffffffffffffffffffffffffffffffffffffffffffffffff1916827bffffffffffffffffffffffffffffffffffffffffffffffffffffffff1916148061054a57507f5b5e139f000000000000000000000000000000000000000000000000000000007bffffffffffffffffffffffffffffffffffffffffffffffffffffffff1916827bffffffffffffffffffffffffffffffffffffffffffffffffffffffff1916145b8061055a575061055982610edf565b5b9050919050565b606060008054610570906126a4565b80601f016020809104026020016040519081016040528092919081815260200182805461059c906126a4565b80156105e95780601f106105be576101008083540402835291602001916105e9565b820191906000526020600020905b8154815290600101906020018083116105cc57829003601f168201915b5050505050905090565b60006105fe82610f49565b61063d576040517f08c379a0000000000000000000000000000000000000000000000000000000008152600401610634906122fa565b60405180910390fd5b6004600083815260200190815260200160002060009054906101000a900473ffffffffffffffffffffffffffffffffffffffff169050919050565b6000610683826109e2565b90508073ffffffffffffffffffffffffffffffffffffffff168373ffffffffffffffffffffffffffffffffffffffff1614156106f4576040517f08c379a00000000000000000000000000000000000000000000000000000000081526004016106eb9061237a565b60405180910390fd5b8073ffffffffffffffffffffffffffffffffffffffff16610713610fb5565b73ffffffffffffffffffffffffffffffffffffffff16148061074257506107418161073c610fb5565b610e4b565b5b610781576040517f08c379a00000000000000000000000000000000000000000000000000000000081526004016107789061227a565b60405180910390fd5b61078b8383610fbd565b505050565b600060085434146107d6576040517f08c379a00000000000000000000000000000000000000000000000000000000081526004016107cd906123ba565b60405180910390fd5b6107e06006611076565b60006107ec600661108c565b9050600754811115610833576040517f08c379a000000000000000000000000000000000000000000000000000000000815260040161082a9061235a565b60405180910390fd5b61083d338261109a565b60096040518060e0016040528083815260200160008152602001600081526020016005815260200160018152602001600260ff1681526020013373ffffffffffffffffffffffffffffffffffffffff168152509080600181540180825580915050600190039060005260206000209060060201600090919091909150600082015181600001556020820151816001015560408201518160020155606082015181600301556080820151816004015560a08201518160050160006101000a81548160ff021916908360ff16021790555060c08201518160050160016101000a81548173ffffffffffffffffffffffffffffffffffffffff021916908373ffffffffffffffffffffffffffffffffffffffff16021790555050508091505090565b61096d610967610fb5565b82611268565b6109ac576040517f08c379a00000000000000000000000000000000000000000000000000000000081526004016109a39061239a565b60405180910390fd5b6109b7838383611346565b505050565b6109d783838360405180602001604052806000815250610c73565b505050565b60075481565b6000806002600084815260200190815260200160002060009054906101000a900473ffffffffffffffffffffffffffffffffffffffff169050600073ffffffffffffffffffffffffffffffffffffffff168173ffffffffffffffffffffffffffffffffffffffff161415610a8b576040517f08c379a0000000000000000000000000000000000000000000000000000000008152600401610a82906122ba565b60405180910390fd5b80915050919050565b60008073ffffffffffffffffffffffffffffffffffffffff168273ffffffffffffffffffffffffffffffffffffffff161415610b05576040517f08c379a0000000000000000000000000000000000000000000000000000000008152600401610afc9061229a565b60405180910390fd5b600360008373ffffffffffffffffffffffffffffffffffffffff1673ffffffffffffffffffffffffffffffffffffffff168152602001908152602001600020549050919050565b60098181548110610b5c57600080fd5b90600052602060002090600602016000915090508060000154908060010154908060020154908060030154908060040154908060050160009054906101000a900460ff16908060050160019054906101000a900473ffffffffffffffffffffffffffffffffffffffff16905087565b606060018054610bda906126a4565b80601f0160208091040260200160405190810160405280929190818152602001828054610c06906126a4565b8015610c535780601f10610c2857610100808354040283529160200191610c53565b820191906000526020600020905b815481529060010190602001808311610c3657829003601f168201915b5050505050905090565b610c6f610c68610fb5565b83836115a2565b5050565b610c84610c7e610fb5565b83611268565b610cc3576040517f08c379a0000000000000000000000000000000000000000000000000000000008152600401610cba9061239a565b60405180910390fd5b610ccf8484848461170f565b50505050565b60085481565b6060610ce682610f49565b610d25576040517f08c379a0000000000000000000000000000000000000000000000000000000008152600401610d1c9061233a565b60405180910390fd5b6000610d2f61176b565b90506000815111610d4f5760405180602001604052806000815250610d7a565b80610d5984611782565b604051602001610d6a929190612112565b6040516020818303038152906040525b915050919050565b6009600183610d9191906125ad565b81548110610da257610da161280e565b5b906000526020600020906006020173__$bbbe6577d50e927bf59dbab58138b66bc4$__637bc6f9d890916009600185610ddb91906125ad565b81548110610dec57610deb61280e565b5b90600052602060002090600602016040518363ffffffff1660e01b8152600401610e179291906123da565b60006040518083038186803b158015610e2f57600080fd5b505af4158015610e43573d6000803e3d6000fd5b505050505050565b6000600560008473ffffffffffffffffffffffffffffffffffffffff1673ffffffffffffffffffffffffffffffffffffffff16815260200190815260200160002060008373ffffffffffffffffffffffffffffffffffffffff1673ffffffffffffffffffffffffffffffffffffffff16815260200190815260200160002060009054906101000a900460ff16905092915050565b60007f01ffc9a7000000000000000000000000000000000000000000000000000000007bffffffffffffffffffffffffffffffffffffffffffffffffffffffff1916827bffffffffffffffffffffffffffffffffffffffffffffffffffffffff1916149050919050565b60008073ffffffffffffffffffffffffffffffffffffffff166002600084815260200190815260200160002060009054906101000a900473ffffffffffffffffffffffffffffffffffffffff1673ffffffffffffffffffffffffffffffffffffffff1614159050919050565b600033905090565b816004600083815260200190815260200160002060006101000a81548173ffffffffffffffffffffffffffffffffffffffff021916908373ffffffffffffffffffffffffffffffffffffffff160217905550808273ffffffffffffffffffffffffffffffffffffffff16611030836109e2565b73ffffffffffffffffffffffffffffffffffffffff167f8c5be1e5ebec7d5bd14f71427d1e84f3dd0314c0f7b2291e5b200ac8c7c3b92560405160405180910390a45050565b6001816000016000828254019250508190555050565b600081600001549050919050565b600073ffffffffffffffffffffffffffffffffffffffff168273ffffffffffffffffffffffffffffffffffffffff16141561110a576040517f08c379a0000000000000000000000000000000000000000000000000000000008152600401611101906122da565b60405180910390fd5b61111381610f49565b15611153576040517f08c379a000000000000000000000000000000000000000000000000000000000815260040161114a906121fa565b60405180910390fd5b61115f600083836118e3565b6001600360008473ffffffffffffffffffffffffffffffffffffffff1673ffffffffffffffffffffffffffffffffffffffff16815260200190815260200160002060008282546111af9190612526565b92505081905550816002600083815260200190815260200160002060006101000a81548173ffffffffffffffffffffffffffffffffffffffff021916908373ffffffffffffffffffffffffffffffffffffffff160217905550808273ffffffffffffffffffffffffffffffffffffffff16600073ffffffffffffffffffffffffffffffffffffffff167fddf252ad1be2c89b69c2b068fc378daa952ba7f163c4a11628f55a4df523b3ef60405160405180910390a45050565b600061127382610f49565b6112b2576040517f08c379a00000000000000000000000000000000000000000000000000000000081526004016112a99061225a565b60405180910390fd5b60006112bd836109e2565b90508073ffffffffffffffffffffffffffffffffffffffff168473ffffffffffffffffffffffffffffffffffffffff16148061132c57508373ffffffffffffffffffffffffffffffffffffffff16611314846105f3565b73ffffffffffffffffffffffffffffffffffffffff16145b8061133d575061133c8185610e4b565b5b91505092915050565b8273ffffffffffffffffffffffffffffffffffffffff16611366826109e2565b73ffffffffffffffffffffffffffffffffffffffff16146113bc576040517f08c379a00000000000000000000000000000000000000000000000000000000081526004016113b39061231a565b60405180910390fd5b600073ffffffffffffffffffffffffffffffffffffffff168273ffffffffffffffffffffffffffffffffffffffff16141561142c576040517f08c379a00000000000000000000000000000000000000000000000000000000081526004016114239061221a565b60405180910390fd5b6114378383836118e3565b611442600082610fbd565b6001600360008573ffffffffffffffffffffffffffffffffffffffff1673ffffffffffffffffffffffffffffffffffffffff168152602001908152602001600020600082825461149291906125ad565b925050819055506001600360008473ffffffffffffffffffffffffffffffffffffffff1673ffffffffffffffffffffffffffffffffffffffff16815260200190815260200160002060008282546114e99190612526565b92505081905550816002600083815260200190815260200160002060006101000a81548173ffffffffffffffffffffffffffffffffffffffff021916908373ffffffffffffffffffffffffffffffffffffffff160217905550808273ffffffffffffffffffffffffffffffffffffffff168473ffffffffffffffffffffffffffffffffffffffff167fddf252ad1be2c89b69c2b068fc378daa952ba7f163c4a11628f55a4df523b3ef60405160405180910390a4505050565b8173ffffffffffffffffffffffffffffffffffffffff168373ffffffffffffffffffffffffffffffffffffffff161415611611576040517f08c379a00000000000000000000000000000000000000000000000000000000081526004016116089061223a565b60405180910390fd5b80600560008573ffffffffffffffffffffffffffffffffffffffff1673ffffffffffffffffffffffffffffffffffffffff16815260200190815260200160002060008473ffffffffffffffffffffffffffffffffffffffff1673ffffffffffffffffffffffffffffffffffffffff16815260200190815260200160002060006101000a81548160ff0219169083151502179055508173ffffffffffffffffffffffffffffffffffffffff168373ffffffffffffffffffffffffffffffffffffffff167f17307eab39ab6107e8899845ad3d59bd9653f200f220920489ca2b5937696c3183604051611702919061219d565b60405180910390a3505050565b61171a848484611346565b611726848484846118e8565b611765576040517f08c379a000000000000000000000000000000000000000000000000000000000815260040161175c906121da565b60405180910390fd5b50505050565b606060405180602001604052806000815250905090565b606060008214156117ca576040518060400160405280600181526020017f300000000000000000000000000000000000000000000000000000000000000081525090506118de565b600082905060005b600082146117fc5780806117e590612707565b915050600a826117f5919061257c565b91506117d2565b60008167ffffffffffffffff8111156118185761181761283d565b5b6040519080825280601f01601f19166020018201604052801561184a5781602001600182028036833780820191505090505b5090505b600085146118d75760018261186391906125ad565b9150600a856118729190612750565b603061187e9190612526565b60f81b8183815181106118945761189361280e565b5b60200101907effffffffffffffffffffffffffffffffffffffffffffffffffffffffffffff1916908160001a905350600a856118d0919061257c565b945061184e565b8093505050505b919050565b505050565b60006119098473ffffffffffffffffffffffffffffffffffffffff16611a7f565b15611a72578373ffffffffffffffffffffffffffffffffffffffff1663150b7a02611932610fb5565b8786866040518563ffffffff1660e01b81526004016119549493929190612151565b602060405180830381600087803b15801561196e57600080fd5b505af192505050801561199f57506040513d601f19601f8201168201806040525081019061199c9190611d5b565b60015b611a22573d80600081146119cf576040519150601f19603f3d011682016040523d82523d6000602084013e6119d4565b606091505b50600081511415611a1a576040517f08c379a0000000000000000000000000000000000000000000000000000000008152600401611a11906121da565b60405180910390fd5b805181602001fd5b63150b7a0260e01b7bffffffffffffffffffffffffffffffffffffffffffffffffffffffff1916817bffffffffffffffffffffffffffffffffffffffffffffffffffffffff191614915050611a77565b600190505b949350505050565b600080823b905060008111915050919050565b6000611aa5611aa0846124b2565b61248d565b905082815260208101848484011115611ac157611ac0612871565b5b611acc848285612662565b509392505050565b600081359050611ae381612ce9565b92915050565b600081359050611af881612d00565b92915050565b600081359050611b0d81612d17565b92915050565b600081519050611b2281612d17565b92915050565b600082601f830112611b3d57611b3c61286c565b5b8135611b4d848260208601611a92565b91505092915050565b600081359050611b6581612d2e565b92915050565b600060208284031215611b8157611b8061287b565b5b6000611b8f84828501611ad4565b91505092915050565b60008060408385031215611baf57611bae61287b565b5b6000611bbd85828601611ad4565b9250506020611bce85828601611ad4565b9150509250929050565b600080600060608486031215611bf157611bf061287b565b5b6000611bff86828701611ad4565b9350506020611c1086828701611ad4565b9250506040611c2186828701611b56565b9150509250925092565b60008060008060808587031215611c4557611c4461287b565b5b6000611c5387828801611ad4565b9450506020611c6487828801611ad4565b9350506040611c7587828801611b56565b925050606085013567ffffffffffffffff811115611c9657611c95612876565b5b611ca287828801611b28565b91505092959194509250565b60008060408385031215611cc557611cc461287b565b5b6000611cd385828601611ad4565b9250506020611ce485828601611ae9565b9150509250929050565b60008060408385031215611d0557611d0461287b565b5b6000611d1385828601611ad4565b9250506020611d2485828601611b56565b9150509250929050565b600060208284031215611d4457611d4361287b565b5b6000611d5284828501611afe565b91505092915050565b600060208284031215611d7157611d7061287b565b5b6000611d7f84828501611b13565b91505092915050565b600060208284031215611d9e57611d9d61287b565b5b6000611dac84828501611b56565b91505092915050565b60008060408385031215611dcc57611dcb61287b565b5b6000611dda85828601611b56565b9250506020611deb85828601611b56565b9150509250929050565b611dfe816125e1565b82525050565b611e0d816125f3565b82525050565b6000611e1e826124e3565b611e2881856124f9565b9350611e38818560208601612671565b611e4181612880565b840191505092915050565b6000611e57826124ee565b611e61818561250a565b9350611e71818560208601612671565b611e7a81612880565b840191505092915050565b6000611e90826124ee565b611e9a818561251b565b9350611eaa818560208601612671565b80840191505092915050565b6000611ec360328361250a565b9150611ece82612891565b604082019050919050565b6000611ee6601c8361250a565b9150611ef1826128e0565b602082019050919050565b6000611f0960248361250a565b9150611f1482612909565b604082019050919050565b6000611f2c60198361250a565b9150611f3782612958565b602082019050919050565b6000611f4f602c8361250a565b9150611f5a82612981565b604082019050919050565b6000611f7260388361250a565b9150611f7d826129d0565b604082019050919050565b6000611f95602a8361250a565b9150611fa082612a1f565b604082019050919050565b6000611fb860298361250a565b9150611fc382612a6e565b604082019050919050565b6000611fdb60208361250a565b9150611fe682612abd565b602082019050919050565b6000611ffe602c8361250a565b915061200982612ae6565b604082019050919050565b600061202160298361250a565b915061202c82612b35565b604082019050919050565b6000612044602f8361250a565b915061204f82612b84565b604082019050919050565b600061206760268361250a565b915061207282612bd3565b604082019050919050565b600061208a60218361250a565b915061209582612c22565b604082019050919050565b60006120ad60318361250a565b91506120b882612c71565b604082019050919050565b60006120d060208361250a565b91506120db82612cc0565b602082019050919050565b8082525050565b8082525050565b6120fd8161264b565b82525050565b61210c81612655565b82525050565b600061211e8285611e85565b915061212a8284611e85565b91508190509392505050565b600060208201905061214b6000830184611df5565b92915050565b60006080820190506121666000830187611df5565b6121736020830186611df5565b61218060408301856120f4565b81810360608301526121928184611e13565b905095945050505050565b60006020820190506121b26000830184611e04565b92915050565b600060208201905081810360008301526121d28184611e4c565b905092915050565b600060208201905081810360008301526121f381611eb6565b9050919050565b6000602082019050818103600083015261221381611ed9565b9050919050565b6000602082019050818103600083015261223381611efc565b9050919050565b6000602082019050818103600083015261225381611f1f565b9050919050565b6000602082019050818103600083015261227381611f42565b9050919050565b6000602082019050818103600083015261229381611f65565b9050919050565b600060208201905081810360008301526122b381611f88565b9050919050565b600060208201905081810360008301526122d381611fab565b9050919050565b600060208201905081810360008301526122f381611fce565b9050919050565b6000602082019050818103600083015261231381611ff1565b9050919050565b6000602082019050818103600083015261233381612014565b9050919050565b6000602082019050818103600083015261235381612037565b9050919050565b600060208201905081810360008301526123738161205a565b9050919050565b600060208201905081810360008301526123938161207d565b9050919050565b600060208201905081810360008301526123b3816120a0565b9050919050565b600060208201905081810360008301526123d3816120c3565b9050919050565b60006040820190506123ef60008301856120e6565b6123fc60208301846120ed565b9392505050565b600060208201905061241860008301846120f4565b92915050565b600060e082019050612433600083018a6120f4565b61244060208301896120f4565b61244d60408301886120f4565b61245a60608301876120f4565b61246760808301866120f4565b61247460a0830185612103565b61248160c0830184611df5565b98975050505050505050565b60006124976124a8565b90506124a382826126d6565b919050565b6000604051905090565b600067ffffffffffffffff8211156124cd576124cc61283d565b5b6124d682612880565b9050602081019050919050565b600081519050919050565b600081519050919050565b600082825260208201905092915050565b600082825260208201905092915050565b600081905092915050565b60006125318261264b565b915061253c8361264b565b9250827fffffffffffffffffffffffffffffffffffffffffffffffffffffffffffffffff0382111561257157612570612781565b5b828201905092915050565b60006125878261264b565b91506125928361264b565b9250826125a2576125a16127b0565b5b828204905092915050565b60006125b88261264b565b91506125c38361264b565b9250828210156125d6576125d5612781565b5b828203905092915050565b60006125ec8261262b565b9050919050565b60008115159050919050565b60007fffffffff0000000000000000000000000000000000000000000000000000000082169050919050565b600073ffffffffffffffffffffffffffffffffffffffff82169050919050565b6000819050919050565b600060ff82169050919050565b82818337600083830152505050565b60005b8381101561268f578082015181840152602081019050612674565b8381111561269e576000848401525b50505050565b600060028204905060018216806126bc57607f821691505b602082108114156126d0576126cf6127df565b5b50919050565b6126df82612880565b810181811067ffffffffffffffff821117156126fe576126fd61283d565b5b80604052505050565b60006127128261264b565b91507fffffffffffffffffffffffffffffffffffffffffffffffffffffffffffffffff82141561274557612744612781565b5b600182019050919050565b600061275b8261264b565b91506127668361264b565b925082612776576127756127b0565b5b828206905092915050565b7f4e487b7100000000000000000000000000000000000000000000000000000000600052601160045260246000fd5b7f4e487b7100000000000000000000000000000000000000000000000000000000600052601260045260246000fd5b7f4e487b7100000000000000000000000000000000000000000000000000000000600052602260045260246000fd5b7f4e487b7100000000000000000000000000000000000000000000000000000000600052603260045260246000fd5b7f4e487b7100000000000000000000000000000000000000000000000000000000600052604160045260246000fd5b600080fd5b600080fd5b600080fd5b600080fd5b6000601f19601f8301169050919050565b7f4552433732313a207472616e7366657220746f206e6f6e20455243373231526560008201527f63656976657220696d706c656d656e7465720000000000000000000000000000602082015250565b7f4552433732313a20746f6b656e20616c7265616479206d696e74656400000000600082015250565b7f4552433732313a207472616e7366657220746f20746865207a65726f2061646460008201527f7265737300000000000000000000000000000000000000000000000000000000602082015250565b7f4552433732313a20617070726f766520746f2063616c6c657200000000000000600082015250565b7f4552433732313a206f70657261746f7220717565727920666f72206e6f6e657860008201527f697374656e7420746f6b656e0000000000000000000000000000000000000000602082015250565b7f4552433732313a20617070726f76652063616c6c6572206973206e6f74206f7760008201527f6e6572206e6f7220617070726f76656420666f7220616c6c0000000000000000602082015250565b7f4552433732313a2062616c616e636520717565727920666f7220746865207a6560008201527f726f206164647265737300000000000000000000000000000000000000000000602082015250565b7f4552433732313a206f776e657220717565727920666f72206e6f6e657869737460008201527f656e7420746f6b656e0000000000000000000000000000000000000000000000602082015250565b7f4552433732313a206d696e7420746f20746865207a65726f2061646472657373600082015250565b7f4552433732313a20617070726f76656420717565727920666f72206e6f6e657860008201527f697374656e7420746f6b656e0000000000000000000000000000000000000000602082015250565b7f4552433732313a207472616e73666572206f6620746f6b656e2074686174206960008201527f73206e6f74206f776e0000000000000000000000000000000000000000000000602082015250565b7f4552433732314d657461646174613a2055524920717565727920666f72206e6f60008201527f6e6578697374656e7420746f6b656e0000000000000000000000000000000000602082015250565b7f43727970746f4b6e69676874732063616e206e6f206c6f6e676572206265206d60008201527f696e7465642e0000000000000000000000000000000000000000000000000000602082015250565b7f4552433732313a20617070726f76616c20746f2063757272656e74206f776e6560008201527f7200000000000000000000000000000000000000000000000000000000000000602082015250565b7f4552433732313a207472616e736665722063616c6c6572206973206e6f74206f60008201527f776e6572206e6f7220617070726f766564000000000000000000000000000000602082015250565b7f56616c75652073656e74206d757374206d61746368206d696e7420636f73742e600082015250565b612cf2816125e1565b8114612cfd57600080fd5b50565b612d09816125f3565b8114612d1457600080fd5b50565b612d20816125ff565b8114612d2b57600080fd5b50565b612d378161264b565b8114612d4257600080fd5b5056fea2646970667358221220cbad323f55eda0e747d054344c8f8f8fd469883a5d8ab3b683be4fb3d5785c2264736f6c63430008070033",
			"opcodes": "PUSH1 0x80 PUSH1 0x40 MSTORE CALLVALUE DUP1 ISZERO PUSH3 0x11 JUMPI PUSH1 0x0 DUP1 REVERT JUMPDEST POP PUSH1 0x40 MLOAD PUSH3 0x3006 CODESIZE SUB DUP1 PUSH3 0x3006 DUP4 CODECOPY DUP2 DUP2 ADD PUSH1 0x40 MSTORE DUP2 ADD SWAP1 PUSH3 0x37 SWAP2 SWAP1 PUSH3 0x1BB JUMP JUMPDEST PUSH1 0x40 MLOAD DUP1 PUSH1 0x40 ADD PUSH1 0x40 MSTORE DUP1 PUSH1 0xD DUP2 MSTORE PUSH1 0x20 ADD PUSH32 0x43727970746F4B6E696768747300000000000000000000000000000000000000 DUP2 MSTORE POP PUSH1 0x40 MLOAD DUP1 PUSH1 0x40 ADD PUSH1 0x40 MSTORE DUP1 PUSH1 0x4 DUP2 MSTORE PUSH1 0x20 ADD PUSH32 0x434B4E5300000000000000000000000000000000000000000000000000000000 DUP2 MSTORE POP DUP2 PUSH1 0x0 SWAP1 DUP1 MLOAD SWAP1 PUSH1 0x20 ADD SWAP1 PUSH3 0xBB SWAP3 SWAP2 SWAP1 PUSH3 0xF4 JUMP JUMPDEST POP DUP1 PUSH1 0x1 SWAP1 DUP1 MLOAD SWAP1 PUSH1 0x20 ADD SWAP1 PUSH3 0xD4 SWAP3 SWAP2 SWAP1 PUSH3 0xF4 JUMP JUMPDEST POP POP POP DUP1 PUSH1 0x7 DUP2 SWAP1 SSTORE POP PUSH8 0xDE0B6B3A7640000 PUSH1 0x8 DUP2 SWAP1 SSTORE POP POP PUSH3 0x27B JUMP JUMPDEST DUP3 DUP1 SLOAD PUSH3 0x102 SWAP1 PUSH3 0x1F7 JUMP JUMPDEST SWAP1 PUSH1 0x0 MSTORE PUSH1 0x20 PUSH1 0x0 KECCAK256 SWAP1 PUSH1 0x1F ADD PUSH1 0x20 SWAP1 DIV DUP2 ADD SWAP3 DUP3 PUSH3 0x126 JUMPI PUSH1 0x0 DUP6 SSTORE PUSH3 0x172 JUMP JUMPDEST DUP3 PUSH1 0x1F LT PUSH3 0x141 JUMPI DUP1 MLOAD PUSH1 0xFF NOT AND DUP4 DUP1 ADD OR DUP6 SSTORE PUSH3 0x172 JUMP JUMPDEST DUP3 DUP1 ADD PUSH1 0x1 ADD DUP6 SSTORE DUP3 ISZERO PUSH3 0x172 JUMPI SWAP2 DUP3 ADD JUMPDEST DUP3 DUP2 GT ISZERO PUSH3 0x171 JUMPI DUP3 MLOAD DUP3 SSTORE SWAP2 PUSH1 0x20 ADD SWAP2 SWAP1 PUSH1 0x1 ADD SWAP1 PUSH3 0x154 JUMP JUMPDEST JUMPDEST POP SWAP1 POP PUSH3 0x181 SWAP2 SWAP1 PUSH3 0x185 JUMP JUMPDEST POP SWAP1 JUMP JUMPDEST JUMPDEST DUP1 DUP3 GT ISZERO PUSH3 0x1A0 JUMPI PUSH1 0x0 DUP2 PUSH1 0x0 SWAP1 SSTORE POP PUSH1 0x1 ADD PUSH3 0x186 JUMP JUMPDEST POP SWAP1 JUMP JUMPDEST PUSH1 0x0 DUP2 MLOAD SWAP1 POP PUSH3 0x1B5 DUP2 PUSH3 0x261 JUMP JUMPDEST SWAP3 SWAP2 POP POP JUMP JUMPDEST PUSH1 0x0 PUSH1 0x20 DUP3 DUP5 SUB SLT ISZERO PUSH3 0x1D4 JUMPI PUSH3 0x1D3 PUSH3 0x25C JUMP JUMPDEST JUMPDEST PUSH1 0x0 PUSH3 0x1E4 DUP5 DUP3 DUP6 ADD PUSH3 0x1A4 JUMP JUMPDEST SWAP2 POP POP SWAP3 SWAP2 POP POP JUMP JUMPDEST PUSH1 0x0 DUP2 SWAP1 POP SWAP2 SWAP1 POP JUMP JUMPDEST PUSH1 0x0 PUSH1 0x2 DUP3 DIV SWAP1 POP PUSH1 0x1 DUP3 AND DUP1 PUSH3 0x210 JUMPI PUSH1 0x7F DUP3 AND SWAP2 POP JUMPDEST PUSH1 0x20 DUP3 LT DUP2 EQ ISZERO PUSH3 0x227 JUMPI PUSH3 0x226 PUSH3 0x22D JUMP JUMPDEST JUMPDEST POP SWAP2 SWAP1 POP JUMP JUMPDEST PUSH32 0x4E487B7100000000000000000000000000000000000000000000000000000000 PUSH1 0x0 MSTORE PUSH1 0x22 PUSH1 0x4 MSTORE PUSH1 0x24 PUSH1 0x0 REVERT JUMPDEST PUSH1 0x0 DUP1 REVERT JUMPDEST PUSH3 0x26C DUP2 PUSH3 0x1ED JUMP JUMPDEST DUP2 EQ PUSH3 0x278 JUMPI PUSH1 0x0 DUP1 REVERT JUMPDEST POP JUMP JUMPDEST PUSH2 0x2D7B DUP1 PUSH3 0x28B PUSH1 0x0 CODECOPY PUSH1 0x0 RETURN INVALID PUSH1 0x80 PUSH1 0x40 MSTORE PUSH1 0x4 CALLDATASIZE LT PUSH2 0x109 JUMPI PUSH1 0x0 CALLDATALOAD PUSH1 0xE0 SHR DUP1 PUSH4 0x70A08231 GT PUSH2 0x95 JUMPI DUP1 PUSH4 0xB88D4FDE GT PUSH2 0x64 JUMPI DUP1 PUSH4 0xB88D4FDE EQ PUSH2 0x388 JUMPI DUP1 PUSH4 0xBDB4B848 EQ PUSH2 0x3B1 JUMPI DUP1 PUSH4 0xC87B56DD EQ PUSH2 0x3DC JUMPI DUP1 PUSH4 0xE1FA7638 EQ PUSH2 0x419 JUMPI DUP1 PUSH4 0xE985E9C5 EQ PUSH2 0x442 JUMPI PUSH2 0x109 JUMP JUMPDEST DUP1 PUSH4 0x70A08231 EQ PUSH2 0x2B4 JUMPI DUP1 PUSH4 0x8C1379CC EQ PUSH2 0x2F1 JUMPI DUP1 PUSH4 0x95D89B41 EQ PUSH2 0x334 JUMPI DUP1 PUSH4 0xA22CB465 EQ PUSH2 0x35F JUMPI PUSH2 0x109 JUMP JUMPDEST DUP1 PUSH4 0x1E661710 GT PUSH2 0xDC JUMPI DUP1 PUSH4 0x1E661710 EQ PUSH2 0x1DC JUMPI DUP1 PUSH4 0x23B872DD EQ PUSH2 0x1FA JUMPI DUP1 PUSH4 0x42842E0E EQ PUSH2 0x223 JUMPI DUP1 PUSH4 0x4A0EF768 EQ PUSH2 0x24C JUMPI DUP1 PUSH4 0x6352211E EQ PUSH2 0x277 JUMPI PUSH2 0x109 JUMP JUMPDEST DUP1 PUSH4 0x1FFC9A7 EQ PUSH2 0x10E JUMPI DUP1 PUSH4 0x6FDDE03 EQ PUSH2 0x14B JUMPI DUP1 PUSH4 0x81812FC EQ PUSH2 0x176 JUMPI DUP1 PUSH4 0x95EA7B3 EQ PUSH2 0x1B3 JUMPI JUMPDEST PUSH1 0x0 DUP1 REVERT JUMPDEST CALLVALUE DUP1 ISZERO PUSH2 0x11A JUMPI PUSH1 0x0 DUP1 REVERT JUMPDEST POP PUSH2 0x135 PUSH1 0x4 DUP1 CALLDATASIZE SUB DUP2 ADD SWAP1 PUSH2 0x130 SWAP2 SWAP1 PUSH2 0x1D2E JUMP JUMPDEST PUSH2 0x47F JUMP JUMPDEST PUSH1 0x40 MLOAD PUSH2 0x142 SWAP2 SWAP1 PUSH2 0x219D JUMP JUMPDEST PUSH1 0x40 MLOAD DUP1 SWAP2 SUB SWAP1 RETURN JUMPDEST CALLVALUE DUP1 ISZERO PUSH2 0x157 JUMPI PUSH1 0x0 DUP1 REVERT JUMPDEST POP PUSH2 0x160 PUSH2 0x561 JUMP JUMPDEST PUSH1 0x40 MLOAD PUSH2 0x16D SWAP2 SWAP1 PUSH2 0x21B8 JUMP JUMPDEST PUSH1 0x40 MLOAD DUP1 SWAP2 SUB SWAP1 RETURN JUMPDEST CALLVALUE DUP1 ISZERO PUSH2 0x182 JUMPI PUSH1 0x0 DUP1 REVERT JUMPDEST POP PUSH2 0x19D PUSH1 0x4 DUP1 CALLDATASIZE SUB DUP2 ADD SWAP1 PUSH2 0x198 SWAP2 SWAP1 PUSH2 0x1D88 JUMP JUMPDEST PUSH2 0x5F3 JUMP JUMPDEST PUSH1 0x40 MLOAD PUSH2 0x1AA SWAP2 SWAP1 PUSH2 0x2136 JUMP JUMPDEST PUSH1 0x40 MLOAD DUP1 SWAP2 SUB SWAP1 RETURN JUMPDEST CALLVALUE DUP1 ISZERO PUSH2 0x1BF JUMPI PUSH1 0x0 DUP1 REVERT JUMPDEST POP PUSH2 0x1DA PUSH1 0x4 DUP1 CALLDATASIZE SUB DUP2 ADD SWAP1 PUSH2 0x1D5 SWAP2 SWAP1 PUSH2 0x1CEE JUMP JUMPDEST PUSH2 0x678 JUMP JUMPDEST STOP JUMPDEST PUSH2 0x1E4 PUSH2 0x790 JUMP JUMPDEST PUSH1 0x40 MLOAD PUSH2 0x1F1 SWAP2 SWAP1 PUSH2 0x2403 JUMP JUMPDEST PUSH1 0x40 MLOAD DUP1 SWAP2 SUB SWAP1 RETURN JUMPDEST CALLVALUE DUP1 ISZERO PUSH2 0x206 JUMPI PUSH1 0x0 DUP1 REVERT JUMPDEST POP PUSH2 0x221 PUSH1 0x4 DUP1 CALLDATASIZE SUB DUP2 ADD SWAP1 PUSH2 0x21C SWAP2 SWAP1 PUSH2 0x1BD8 JUMP JUMPDEST PUSH2 0x95C JUMP JUMPDEST STOP JUMPDEST CALLVALUE DUP1 ISZERO PUSH2 0x22F JUMPI PUSH1 0x0 DUP1 REVERT JUMPDEST POP PUSH2 0x24A PUSH1 0x4 DUP1 CALLDATASIZE SUB DUP2 ADD SWAP1 PUSH2 0x245 SWAP2 SWAP1 PUSH2 0x1BD8 JUMP JUMPDEST PUSH2 0x9BC JUMP JUMPDEST STOP JUMPDEST CALLVALUE DUP1 ISZERO PUSH2 0x258 JUMPI PUSH1 0x0 DUP1 REVERT JUMPDEST POP PUSH2 0x261 PUSH2 0x9DC JUMP JUMPDEST PUSH1 0x40 MLOAD PUSH2 0x26E SWAP2 SWAP1 PUSH2 0x2403 JUMP JUMPDEST PUSH1 0x40 MLOAD DUP1 SWAP2 SUB SWAP1 RETURN JUMPDEST CALLVALUE DUP1 ISZERO PUSH2 0x283 JUMPI PUSH1 0x0 DUP1 REVERT JUMPDEST POP PUSH2 0x29E PUSH1 0x4 DUP1 CALLDATASIZE SUB DUP2 ADD SWAP1 PUSH2 0x299 SWAP2 SWAP1 PUSH2 0x1D88 JUMP JUMPDEST PUSH2 0x9E2 JUMP JUMPDEST PUSH1 0x40 MLOAD PUSH2 0x2AB SWAP2 SWAP1 PUSH2 0x2136 JUMP JUMPDEST PUSH1 0x40 MLOAD DUP1 SWAP2 SUB SWAP1 RETURN JUMPDEST CALLVALUE DUP1 ISZERO PUSH2 0x2C0 JUMPI PUSH1 0x0 DUP1 REVERT JUMPDEST POP PUSH2 0x2DB PUSH1 0x4 DUP1 CALLDATASIZE SUB DUP2 ADD SWAP1 PUSH2 0x2D6 SWAP2 SWAP1 PUSH2 0x1B6B JUMP JUMPDEST PUSH2 0xA94 JUMP JUMPDEST PUSH1 0x40 MLOAD PUSH2 0x2E8 SWAP2 SWAP1 PUSH2 0x2403 JUMP JUMPDEST PUSH1 0x40 MLOAD DUP1 SWAP2 SUB SWAP1 RETURN JUMPDEST CALLVALUE DUP1 ISZERO PUSH2 0x2FD JUMPI PUSH1 0x0 DUP1 REVERT JUMPDEST POP PUSH2 0x318 PUSH1 0x4 DUP1 CALLDATASIZE SUB DUP2 ADD SWAP1 PUSH2 0x313 SWAP2 SWAP1 PUSH2 0x1D88 JUMP JUMPDEST PUSH2 0xB4C JUMP JUMPDEST PUSH1 0x40 MLOAD PUSH2 0x32B SWAP8 SWAP7 SWAP6 SWAP5 SWAP4 SWAP3 SWAP2 SWAP1 PUSH2 0x241E JUMP JUMPDEST PUSH1 0x40 MLOAD DUP1 SWAP2 SUB SWAP1 RETURN JUMPDEST CALLVALUE DUP1 ISZERO PUSH2 0x340 JUMPI PUSH1 0x0 DUP1 REVERT JUMPDEST POP PUSH2 0x349 PUSH2 0xBCB JUMP JUMPDEST PUSH1 0x40 MLOAD PUSH2 0x356 SWAP2 SWAP1 PUSH2 0x21B8 JUMP JUMPDEST PUSH1 0x40 MLOAD DUP1 SWAP2 SUB SWAP1 RETURN JUMPDEST CALLVALUE DUP1 ISZERO PUSH2 0x36B JUMPI PUSH1 0x0 DUP1 REVERT JUMPDEST POP PUSH2 0x386 PUSH1 0x4 DUP1 CALLDATASIZE SUB DUP2 ADD SWAP1 PUSH2 0x381 SWAP2 SWAP1 PUSH2 0x1CAE JUMP JUMPDEST PUSH2 0xC5D JUMP JUMPDEST STOP JUMPDEST CALLVALUE DUP1 ISZERO PUSH2 0x394 JUMPI PUSH1 0x0 DUP1 REVERT JUMPDEST POP PUSH2 0x3AF PUSH1 0x4 DUP1 CALLDATASIZE SUB DUP2 ADD SWAP1 PUSH2 0x3AA SWAP2 SWAP1 PUSH2 0x1C2B JUMP JUMPDEST PUSH2 0xC73 JUMP JUMPDEST STOP JUMPDEST CALLVALUE DUP1 ISZERO PUSH2 0x3BD JUMPI PUSH1 0x0 DUP1 REVERT JUMPDEST POP PUSH2 0x3C6 PUSH2 0xCD5 JUMP JUMPDEST PUSH1 0x40 MLOAD PUSH2 0x3D3 SWAP2 SWAP1 PUSH2 0x2403 JUMP JUMPDEST PUSH1 0x40 MLOAD DUP1 SWAP2 SUB SWAP1 RETURN JUMPDEST CALLVALUE DUP1 ISZERO PUSH2 0x3E8 JUMPI PUSH1 0x0 DUP1 REVERT JUMPDEST POP PUSH2 0x403 PUSH1 0x4 DUP1 CALLDATASIZE SUB DUP2 ADD SWAP1 PUSH2 0x3FE SWAP2 SWAP1 PUSH2 0x1D88 JUMP JUMPDEST PUSH2 0xCDB JUMP JUMPDEST PUSH1 0x40 MLOAD PUSH2 0x410 SWAP2 SWAP1 PUSH2 0x21B8 JUMP JUMPDEST PUSH1 0x40 MLOAD DUP1 SWAP2 SUB SWAP1 RETURN JUMPDEST CALLVALUE DUP1 ISZERO PUSH2 0x425 JUMPI PUSH1 0x0 DUP1 REVERT JUMPDEST POP PUSH2 0x440 PUSH1 0x4 DUP1 CALLDATASIZE SUB DUP2 ADD SWAP1 PUSH2 0x43B SWAP2 SWAP1 PUSH2 0x1DB5 JUMP JUMPDEST PUSH2 0xD82 JUMP JUMPDEST STOP JUMPDEST CALLVALUE DUP1 ISZERO PUSH2 0x44E JUMPI PUSH1 0x0 DUP1 REVERT JUMPDEST POP PUSH2 0x469 PUSH1 0x4 DUP1 CALLDATASIZE SUB DUP2 ADD SWAP1 PUSH2 0x464 SWAP2 SWAP1 PUSH2 0x1B98 JUMP JUMPDEST PUSH2 0xE4B JUMP JUMPDEST PUSH1 0x40 MLOAD PUSH2 0x476 SWAP2 SWAP1 PUSH2 0x219D JUMP JUMPDEST PUSH1 0x40 MLOAD DUP1 SWAP2 SUB SWAP1 RETURN JUMPDEST PUSH1 0x0 PUSH32 0x80AC58CD00000000000000000000000000000000000000000000000000000000 PUSH28 0xFFFFFFFFFFFFFFFFFFFFFFFFFFFFFFFFFFFFFFFFFFFFFFFFFFFFFFFF NOT AND DUP3 PUSH28 0xFFFFFFFFFFFFFFFFFFFFFFFFFFFFFFFFFFFFFFFFFFFFFFFFFFFFFFFF NOT AND EQ DUP1 PUSH2 0x54A JUMPI POP PUSH32 0x5B5E139F00000000000000000000000000000000000000000000000000000000 PUSH28 0xFFFFFFFFFFFFFFFFFFFFFFFFFFFFFFFFFFFFFFFFFFFFFFFFFFFFFFFF NOT AND DUP3 PUSH28 0xFFFFFFFFFFFFFFFFFFFFFFFFFFFFFFFFFFFFFFFFFFFFFFFFFFFFFFFF NOT AND EQ JUMPDEST DUP1 PUSH2 0x55A JUMPI POP PUSH2 0x559 DUP3 PUSH2 0xEDF JUMP JUMPDEST JUMPDEST SWAP1 POP SWAP2 SWAP1 POP JUMP JUMPDEST PUSH1 0x60 PUSH1 0x0 DUP1 SLOAD PUSH2 0x570 SWAP1 PUSH2 0x26A4 JUMP JUMPDEST DUP1 PUSH1 0x1F ADD PUSH1 0x20 DUP1 SWAP2 DIV MUL PUSH1 0x20 ADD PUSH1 0x40 MLOAD SWAP1 DUP2 ADD PUSH1 0x40 MSTORE DUP1 SWAP3 SWAP2 SWAP1 DUP2 DUP2 MSTORE PUSH1 0x20 ADD DUP3 DUP1 SLOAD PUSH2 0x59C SWAP1 PUSH2 0x26A4 JUMP JUMPDEST DUP1 ISZERO PUSH2 0x5E9 JUMPI DUP1 PUSH1 0x1F LT PUSH2 0x5BE JUMPI PUSH2 0x100 DUP1 DUP4 SLOAD DIV MUL DUP4 MSTORE SWAP2 PUSH1 0x20 ADD SWAP2 PUSH2 0x5E9 JUMP JUMPDEST DUP3 ADD SWAP2 SWAP1 PUSH1 0x0 MSTORE PUSH1 0x20 PUSH1 0x0 KECCAK256 SWAP1 JUMPDEST DUP2 SLOAD DUP2 MSTORE SWAP1 PUSH1 0x1 ADD SWAP1 PUSH1 0x20 ADD DUP1 DUP4 GT PUSH2 0x5CC JUMPI DUP3 SWAP1 SUB PUSH1 0x1F AND DUP3 ADD SWAP2 JUMPDEST POP POP POP POP POP SWAP1 POP SWAP1 JUMP JUMPDEST PUSH1 0x0 PUSH2 0x5FE DUP3 PUSH2 0xF49 JUMP JUMPDEST PUSH2 0x63D JUMPI PUSH1 0x40 MLOAD PUSH32 0x8C379A000000000000000000000000000000000000000000000000000000000 DUP2 MSTORE PUSH1 0x4 ADD PUSH2 0x634 SWAP1 PUSH2 0x22FA JUMP JUMPDEST PUSH1 0x40 MLOAD DUP1 SWAP2 SUB SWAP1 REVERT JUMPDEST PUSH1 0x4 PUSH1 0x0 DUP4 DUP2 MSTORE PUSH1 0x20 ADD SWAP1 DUP2 MSTORE PUSH1 0x20 ADD PUSH1 0x0 KECCAK256 PUSH1 0x0 SWAP1 SLOAD SWAP1 PUSH2 0x100 EXP SWAP1 DIV PUSH20 0xFFFFFFFFFFFFFFFFFFFFFFFFFFFFFFFFFFFFFFFF AND SWAP1 POP SWAP2 SWAP1 POP JUMP JUMPDEST PUSH1 0x0 PUSH2 0x683 DUP3 PUSH2 0x9E2 JUMP JUMPDEST SWAP1 POP DUP1 PUSH20 0xFFFFFFFFFFFFFFFFFFFFFFFFFFFFFFFFFFFFFFFF AND DUP4 PUSH20 0xFFFFFFFFFFFFFFFFFFFFFFFFFFFFFFFFFFFFFFFF AND EQ ISZERO PUSH2 0x6F4 JUMPI PUSH1 0x40 MLOAD PUSH32 0x8C379A000000000000000000000000000000000000000000000000000000000 DUP2 MSTORE PUSH1 0x4 ADD PUSH2 0x6EB SWAP1 PUSH2 0x237A JUMP JUMPDEST PUSH1 0x40 MLOAD DUP1 SWAP2 SUB SWAP1 REVERT JUMPDEST DUP1 PUSH20 0xFFFFFFFFFFFFFFFFFFFFFFFFFFFFFFFFFFFFFFFF AND PUSH2 0x713 PUSH2 0xFB5 JUMP JUMPDEST PUSH20 0xFFFFFFFFFFFFFFFFFFFFFFFFFFFFFFFFFFFFFFFF AND EQ DUP1 PUSH2 0x742 JUMPI POP PUSH2 0x741 DUP2 PUSH2 0x73C PUSH2 0xFB5 JUMP JUMPDEST PUSH2 0xE4B JUMP JUMPDEST JUMPDEST PUSH2 0x781 JUMPI PUSH1 0x40 MLOAD PUSH32 0x8C379A000000000000000000000000000000000000000000000000000000000 DUP2 MSTORE PUSH1 0x4 ADD PUSH2 0x778 SWAP1 PUSH2 0x227A JUMP JUMPDEST PUSH1 0x40 MLOAD DUP1 SWAP2 SUB SWAP1 REVERT JUMPDEST PUSH2 0x78B DUP4 DUP4 PUSH2 0xFBD JUMP JUMPDEST POP POP POP JUMP JUMPDEST PUSH1 0x0 PUSH1 0x8 SLOAD CALLVALUE EQ PUSH2 0x7D6 JUMPI PUSH1 0x40 MLOAD PUSH32 0x8C379A000000000000000000000000000000000000000000000000000000000 DUP2 MSTORE PUSH1 0x4 ADD PUSH2 0x7CD SWAP1 PUSH2 0x23BA JUMP JUMPDEST PUSH1 0x40 MLOAD DUP1 SWAP2 SUB SWAP1 REVERT JUMPDEST PUSH2 0x7E0 PUSH1 0x6 PUSH2 0x1076 JUMP JUMPDEST PUSH1 0x0 PUSH2 0x7EC PUSH1 0x6 PUSH2 0x108C JUMP JUMPDEST SWAP1 POP PUSH1 0x7 SLOAD DUP2 GT ISZERO PUSH2 0x833 JUMPI PUSH1 0x40 MLOAD PUSH32 0x8C379A000000000000000000000000000000000000000000000000000000000 DUP2 MSTORE PUSH1 0x4 ADD PUSH2 0x82A SWAP1 PUSH2 0x235A JUMP JUMPDEST PUSH1 0x40 MLOAD DUP1 SWAP2 SUB SWAP1 REVERT JUMPDEST PUSH2 0x83D CALLER DUP3 PUSH2 0x109A JUMP JUMPDEST PUSH1 0x9 PUSH1 0x40 MLOAD DUP1 PUSH1 0xE0 ADD PUSH1 0x40 MSTORE DUP1 DUP4 DUP2 MSTORE PUSH1 0x20 ADD PUSH1 0x0 DUP2 MSTORE PUSH1 0x20 ADD PUSH1 0x0 DUP2 MSTORE PUSH1 0x20 ADD PUSH1 0x5 DUP2 MSTORE PUSH1 0x20 ADD PUSH1 0x1 DUP2 MSTORE PUSH1 0x20 ADD PUSH1 0x2 PUSH1 0xFF AND DUP2 MSTORE PUSH1 0x20 ADD CALLER PUSH20 0xFFFFFFFFFFFFFFFFFFFFFFFFFFFFFFFFFFFFFFFF AND DUP2 MSTORE POP SWAP1 DUP1 PUSH1 0x1 DUP2 SLOAD ADD DUP1 DUP3 SSTORE DUP1 SWAP2 POP POP PUSH1 0x1 SWAP1 SUB SWAP1 PUSH1 0x0 MSTORE PUSH1 0x20 PUSH1 0x0 KECCAK256 SWAP1 PUSH1 0x6 MUL ADD PUSH1 0x0 SWAP1 SWAP2 SWAP1 SWAP2 SWAP1 SWAP2 POP PUSH1 0x0 DUP3 ADD MLOAD DUP2 PUSH1 0x0 ADD SSTORE PUSH1 0x20 DUP3 ADD MLOAD DUP2 PUSH1 0x1 ADD SSTORE PUSH1 0x40 DUP3 ADD MLOAD DUP2 PUSH1 0x2 ADD SSTORE PUSH1 0x60 DUP3 ADD MLOAD DUP2 PUSH1 0x3 ADD SSTORE PUSH1 0x80 DUP3 ADD MLOAD DUP2 PUSH1 0x4 ADD SSTORE PUSH1 0xA0 DUP3 ADD MLOAD DUP2 PUSH1 0x5 ADD PUSH1 0x0 PUSH2 0x100 EXP DUP2 SLOAD DUP2 PUSH1 0xFF MUL NOT AND SWAP1 DUP4 PUSH1 0xFF AND MUL OR SWAP1 SSTORE POP PUSH1 0xC0 DUP3 ADD MLOAD DUP2 PUSH1 0x5 ADD PUSH1 0x1 PUSH2 0x100 EXP DUP2 SLOAD DUP2 PUSH20 0xFFFFFFFFFFFFFFFFFFFFFFFFFFFFFFFFFFFFFFFF MUL NOT AND SWAP1 DUP4 PUSH20 0xFFFFFFFFFFFFFFFFFFFFFFFFFFFFFFFFFFFFFFFF AND MUL OR SWAP1 SSTORE POP POP POP DUP1 SWAP2 POP POP SWAP1 JUMP JUMPDEST PUSH2 0x96D PUSH2 0x967 PUSH2 0xFB5 JUMP JUMPDEST DUP3 PUSH2 0x1268 JUMP JUMPDEST PUSH2 0x9AC JUMPI PUSH1 0x40 MLOAD PUSH32 0x8C379A000000000000000000000000000000000000000000000000000000000 DUP2 MSTORE PUSH1 0x4 ADD PUSH2 0x9A3 SWAP1 PUSH2 0x239A JUMP JUMPDEST PUSH1 0x40 MLOAD DUP1 SWAP2 SUB SWAP1 REVERT JUMPDEST PUSH2 0x9B7 DUP4 DUP4 DUP4 PUSH2 0x1346 JUMP JUMPDEST POP POP POP JUMP JUMPDEST PUSH2 0x9D7 DUP4 DUP4 DUP4 PUSH1 0x40 MLOAD DUP1 PUSH1 0x20 ADD PUSH1 0x40 MSTORE DUP1 PUSH1 0x0 DUP2 MSTORE POP PUSH2 0xC73 JUMP JUMPDEST POP POP POP JUMP JUMPDEST PUSH1 0x7 SLOAD DUP2 JUMP JUMPDEST PUSH1 0x0 DUP1 PUSH1 0x2 PUSH1 0x0 DUP5 DUP2 MSTORE PUSH1 0x20 ADD SWAP1 DUP2 MSTORE PUSH1 0x20 ADD PUSH1 0x0 KECCAK256 PUSH1 0x0 SWAP1 SLOAD SWAP1 PUSH2 0x100 EXP SWAP1 DIV PUSH20 0xFFFFFFFFFFFFFFFFFFFFFFFFFFFFFFFFFFFFFFFF AND SWAP1 POP PUSH1 0x0 PUSH20 0xFFFFFFFFFFFFFFFFFFFFFFFFFFFFFFFFFFFFFFFF AND DUP2 PUSH20 0xFFFFFFFFFFFFFFFFFFFFFFFFFFFFFFFFFFFFFFFF AND EQ ISZERO PUSH2 0xA8B JUMPI PUSH1 0x40 MLOAD PUSH32 0x8C379A000000000000000000000000000000000000000000000000000000000 DUP2 MSTORE PUSH1 0x4 ADD PUSH2 0xA82 SWAP1 PUSH2 0x22BA JUMP JUMPDEST PUSH1 0x40 MLOAD DUP1 SWAP2 SUB SWAP1 REVERT JUMPDEST DUP1 SWAP2 POP POP SWAP2 SWAP1 POP JUMP JUMPDEST PUSH1 0x0 DUP1 PUSH20 0xFFFFFFFFFFFFFFFFFFFFFFFFFFFFFFFFFFFFFFFF AND DUP3 PUSH20 0xFFFFFFFFFFFFFFFFFFFFFFFFFFFFFFFFFFFFFFFF AND EQ ISZERO PUSH2 0xB05 JUMPI PUSH1 0x40 MLOAD PUSH32 0x8C379A000000000000000000000000000000000000000000000000000000000 DUP2 MSTORE PUSH1 0x4 ADD PUSH2 0xAFC SWAP1 PUSH2 0x229A JUMP JUMPDEST PUSH1 0x40 MLOAD DUP1 SWAP2 SUB SWAP1 REVERT JUMPDEST PUSH1 0x3 PUSH1 0x0 DUP4 PUSH20 0xFFFFFFFFFFFFFFFFFFFFFFFFFFFFFFFFFFFFFFFF AND PUSH20 0xFFFFFFFFFFFFFFFFFFFFFFFFFFFFFFFFFFFFFFFF AND DUP2 MSTORE PUSH1 0x20 ADD SWAP1 DUP2 MSTORE PUSH1 0x20 ADD PUSH1 0x0 KECCAK256 SLOAD SWAP1 POP SWAP2 SWAP1 POP JUMP JUMPDEST PUSH1 0x9 DUP2 DUP2 SLOAD DUP2 LT PUSH2 0xB5C JUMPI PUSH1 0x0 DUP1 REVERT JUMPDEST SWAP1 PUSH1 0x0 MSTORE PUSH1 0x20 PUSH1 0x0 KECCAK256 SWAP1 PUSH1 0x6 MUL ADD PUSH1 0x0 SWAP2 POP SWAP1 POP DUP1 PUSH1 0x0 ADD SLOAD SWAP1 DUP1 PUSH1 0x1 ADD SLOAD SWAP1 DUP1 PUSH1 0x2 ADD SLOAD SWAP1 DUP1 PUSH1 0x3 ADD SLOAD SWAP1 DUP1 PUSH1 0x4 ADD SLOAD SWAP1 DUP1 PUSH1 0x5 ADD PUSH1 0x0 SWAP1 SLOAD SWAP1 PUSH2 0x100 EXP SWAP1 DIV PUSH1 0xFF AND SWAP1 DUP1 PUSH1 0x5 ADD PUSH1 0x1 SWAP1 SLOAD SWAP1 PUSH2 0x100 EXP SWAP1 DIV PUSH20 0xFFFFFFFFFFFFFFFFFFFFFFFFFFFFFFFFFFFFFFFF AND SWAP1 POP DUP8 JUMP JUMPDEST PUSH1 0x60 PUSH1 0x1 DUP1 SLOAD PUSH2 0xBDA SWAP1 PUSH2 0x26A4 JUMP JUMPDEST DUP1 PUSH1 0x1F ADD PUSH1 0x20 DUP1 SWAP2 DIV MUL PUSH1 0x20 ADD PUSH1 0x40 MLOAD SWAP1 DUP2 ADD PUSH1 0x40 MSTORE DUP1 SWAP3 SWAP2 SWAP1 DUP2 DUP2 MSTORE PUSH1 0x20 ADD DUP3 DUP1 SLOAD PUSH2 0xC06 SWAP1 PUSH2 0x26A4 JUMP JUMPDEST DUP1 ISZERO PUSH2 0xC53 JUMPI DUP1 PUSH1 0x1F LT PUSH2 0xC28 JUMPI PUSH2 0x100 DUP1 DUP4 SLOAD DIV MUL DUP4 MSTORE SWAP2 PUSH1 0x20 ADD SWAP2 PUSH2 0xC53 JUMP JUMPDEST DUP3 ADD SWAP2 SWAP1 PUSH1 0x0 MSTORE PUSH1 0x20 PUSH1 0x0 KECCAK256 SWAP1 JUMPDEST DUP2 SLOAD DUP2 MSTORE SWAP1 PUSH1 0x1 ADD SWAP1 PUSH1 0x20 ADD DUP1 DUP4 GT PUSH2 0xC36 JUMPI DUP3 SWAP1 SUB PUSH1 0x1F AND DUP3 ADD SWAP2 JUMPDEST POP POP POP POP POP SWAP1 POP SWAP1 JUMP JUMPDEST PUSH2 0xC6F PUSH2 0xC68 PUSH2 0xFB5 JUMP JUMPDEST DUP4 DUP4 PUSH2 0x15A2 JUMP JUMPDEST POP POP JUMP JUMPDEST PUSH2 0xC84 PUSH2 0xC7E PUSH2 0xFB5 JUMP JUMPDEST DUP4 PUSH2 0x1268 JUMP JUMPDEST PUSH2 0xCC3 JUMPI PUSH1 0x40 MLOAD PUSH32 0x8C379A000000000000000000000000000000000000000000000000000000000 DUP2 MSTORE PUSH1 0x4 ADD PUSH2 0xCBA SWAP1 PUSH2 0x239A JUMP JUMPDEST PUSH1 0x40 MLOAD DUP1 SWAP2 SUB SWAP1 REVERT JUMPDEST PUSH2 0xCCF DUP5 DUP5 DUP5 DUP5 PUSH2 0x170F JUMP JUMPDEST POP POP POP POP JUMP JUMPDEST PUSH1 0x8 SLOAD DUP2 JUMP JUMPDEST PUSH1 0x60 PUSH2 0xCE6 DUP3 PUSH2 0xF49 JUMP JUMPDEST PUSH2 0xD25 JUMPI PUSH1 0x40 MLOAD PUSH32 0x8C379A000000000000000000000000000000000000000000000000000000000 DUP2 MSTORE PUSH1 0x4 ADD PUSH2 0xD1C SWAP1 PUSH2 0x233A JUMP JUMPDEST PUSH1 0x40 MLOAD DUP1 SWAP2 SUB SWAP1 REVERT JUMPDEST PUSH1 0x0 PUSH2 0xD2F PUSH2 0x176B JUMP JUMPDEST SWAP1 POP PUSH1 0x0 DUP2 MLOAD GT PUSH2 0xD4F JUMPI PUSH1 0x40 MLOAD DUP1 PUSH1 0x20 ADD PUSH1 0x40 MSTORE DUP1 PUSH1 0x0 DUP2 MSTORE POP PUSH2 0xD7A JUMP JUMPDEST DUP1 PUSH2 0xD59 DUP5 PUSH2 0x1782 JUMP JUMPDEST PUSH1 0x40 MLOAD PUSH1 0x20 ADD PUSH2 0xD6A SWAP3 SWAP2 SWAP1 PUSH2 0x2112 JUMP JUMPDEST PUSH1 0x40 MLOAD PUSH1 0x20 DUP2 DUP4 SUB SUB DUP2 MSTORE SWAP1 PUSH1 0x40 MSTORE JUMPDEST SWAP2 POP POP SWAP2 SWAP1 POP JUMP JUMPDEST PUSH1 0x9 PUSH1 0x1 DUP4 PUSH2 0xD91 SWAP2 SWAP1 PUSH2 0x25AD JUMP JUMPDEST DUP2 SLOAD DUP2 LT PUSH2 0xDA2 JUMPI PUSH2 0xDA1 PUSH2 0x280E JUMP JUMPDEST JUMPDEST SWAP1 PUSH1 0x0 MSTORE PUSH1 0x20 PUSH1 0x0 KECCAK256 SWAP1 PUSH1 0x6 MUL ADD PUSH20 0x0 PUSH4 0x7BC6F9D8 SWAP1 SWAP2 PUSH1 0x9 PUSH1 0x1 DUP6 PUSH2 0xDDB SWAP2 SWAP1 PUSH2 0x25AD JUMP JUMPDEST DUP2 SLOAD DUP2 LT PUSH2 0xDEC JUMPI PUSH2 0xDEB PUSH2 0x280E JUMP JUMPDEST JUMPDEST SWAP1 PUSH1 0x0 MSTORE PUSH1 0x20 PUSH1 0x0 KECCAK256 SWAP1 PUSH1 0x6 MUL ADD PUSH1 0x40 MLOAD DUP4 PUSH4 0xFFFFFFFF AND PUSH1 0xE0 SHL DUP2 MSTORE PUSH1 0x4 ADD PUSH2 0xE17 SWAP3 SWAP2 SWAP1 PUSH2 0x23DA JUMP JUMPDEST PUSH1 0x0 PUSH1 0x40 MLOAD DUP1 DUP4 SUB DUP2 DUP7 DUP1 EXTCODESIZE ISZERO DUP1 ISZERO PUSH2 0xE2F JUMPI PUSH1 0x0 DUP1 REVERT JUMPDEST POP GAS DELEGATECALL ISZERO DUP1 ISZERO PUSH2 0xE43 JUMPI RETURNDATASIZE PUSH1 0x0 DUP1 RETURNDATACOPY RETURNDATASIZE PUSH1 0x0 REVERT JUMPDEST POP POP POP POP POP POP JUMP JUMPDEST PUSH1 0x0 PUSH1 0x5 PUSH1 0x0 DUP5 PUSH20 0xFFFFFFFFFFFFFFFFFFFFFFFFFFFFFFFFFFFFFFFF AND PUSH20 0xFFFFFFFFFFFFFFFFFFFFFFFFFFFFFFFFFFFFFFFF AND DUP2 MSTORE PUSH1 0x20 ADD SWAP1 DUP2 MSTORE PUSH1 0x20 ADD PUSH1 0x0 KECCAK256 PUSH1 0x0 DUP4 PUSH20 0xFFFFFFFFFFFFFFFFFFFFFFFFFFFFFFFFFFFFFFFF AND PUSH20 0xFFFFFFFFFFFFFFFFFFFFFFFFFFFFFFFFFFFFFFFF AND DUP2 MSTORE PUSH1 0x20 ADD SWAP1 DUP2 MSTORE PUSH1 0x20 ADD PUSH1 0x0 KECCAK256 PUSH1 0x0 SWAP1 SLOAD SWAP1 PUSH2 0x100 EXP SWAP1 DIV PUSH1 0xFF AND SWAP1 POP SWAP3 SWAP2 POP POP JUMP JUMPDEST PUSH1 0x0 PUSH32 0x1FFC9A700000000000000000000000000000000000000000000000000000000 PUSH28 0xFFFFFFFFFFFFFFFFFFFFFFFFFFFFFFFFFFFFFFFFFFFFFFFFFFFFFFFF NOT AND DUP3 PUSH28 0xFFFFFFFFFFFFFFFFFFFFFFFFFFFFFFFFFFFFFFFFFFFFFFFFFFFFFFFF NOT AND EQ SWAP1 POP SWAP2 SWAP1 POP JUMP JUMPDEST PUSH1 0x0 DUP1 PUSH20 0xFFFFFFFFFFFFFFFFFFFFFFFFFFFFFFFFFFFFFFFF AND PUSH1 0x2 PUSH1 0x0 DUP5 DUP2 MSTORE PUSH1 0x20 ADD SWAP1 DUP2 MSTORE PUSH1 0x20 ADD PUSH1 0x0 KECCAK256 PUSH1 0x0 SWAP1 SLOAD SWAP1 PUSH2 0x100 EXP SWAP1 DIV PUSH20 0xFFFFFFFFFFFFFFFFFFFFFFFFFFFFFFFFFFFFFFFF AND PUSH20 0xFFFFFFFFFFFFFFFFFFFFFFFFFFFFFFFFFFFFFFFF AND EQ ISZERO SWAP1 POP SWAP2 SWAP1 POP JUMP JUMPDEST PUSH1 0x0 CALLER SWAP1 POP SWAP1 JUMP JUMPDEST DUP2 PUSH1 0x4 PUSH1 0x0 DUP4 DUP2 MSTORE PUSH1 0x20 ADD SWAP1 DUP2 MSTORE PUSH1 0x20 ADD PUSH1 0x0 KECCAK256 PUSH1 0x0 PUSH2 0x100 EXP DUP2 SLOAD DUP2 PUSH20 0xFFFFFFFFFFFFFFFFFFFFFFFFFFFFFFFFFFFFFFFF MUL NOT AND SWAP1 DUP4 PUSH20 0xFFFFFFFFFFFFFFFFFFFFFFFFFFFFFFFFFFFFFFFF AND MUL OR SWAP1 SSTORE POP DUP1 DUP3 PUSH20 0xFFFFFFFFFFFFFFFFFFFFFFFFFFFFFFFFFFFFFFFF AND PUSH2 0x1030 DUP4 PUSH2 0x9E2 JUMP JUMPDEST PUSH20 0xFFFFFFFFFFFFFFFFFFFFFFFFFFFFFFFFFFFFFFFF AND PUSH32 0x8C5BE1E5EBEC7D5BD14F71427D1E84F3DD0314C0F7B2291E5B200AC8C7C3B925 PUSH1 0x40 MLOAD PUSH1 0x40 MLOAD DUP1 SWAP2 SUB SWAP1 LOG4 POP POP JUMP JUMPDEST PUSH1 0x1 DUP2 PUSH1 0x0 ADD PUSH1 0x0 DUP3 DUP3 SLOAD ADD SWAP3 POP POP DUP2 SWAP1 SSTORE POP POP JUMP JUMPDEST PUSH1 0x0 DUP2 PUSH1 0x0 ADD SLOAD SWAP1 POP SWAP2 SWAP1 POP JUMP JUMPDEST PUSH1 0x0 PUSH20 0xFFFFFFFFFFFFFFFFFFFFFFFFFFFFFFFFFFFFFFFF AND DUP3 PUSH20 0xFFFFFFFFFFFFFFFFFFFFFFFFFFFFFFFFFFFFFFFF AND EQ ISZERO PUSH2 0x110A JUMPI PUSH1 0x40 MLOAD PUSH32 0x8C379A000000000000000000000000000000000000000000000000000000000 DUP2 MSTORE PUSH1 0x4 ADD PUSH2 0x1101 SWAP1 PUSH2 0x22DA JUMP JUMPDEST PUSH1 0x40 MLOAD DUP1 SWAP2 SUB SWAP1 REVERT JUMPDEST PUSH2 0x1113 DUP2 PUSH2 0xF49 JUMP JUMPDEST ISZERO PUSH2 0x1153 JUMPI PUSH1 0x40 MLOAD PUSH32 0x8C379A000000000000000000000000000000000000000000000000000000000 DUP2 MSTORE PUSH1 0x4 ADD PUSH2 0x114A SWAP1 PUSH2 0x21FA JUMP JUMPDEST PUSH1 0x40 MLOAD DUP1 SWAP2 SUB SWAP1 REVERT JUMPDEST PUSH2 0x115F PUSH1 0x0 DUP4 DUP4 PUSH2 0x18E3 JUMP JUMPDEST PUSH1 0x1 PUSH1 0x3 PUSH1 0x0 DUP5 PUSH20 0xFFFFFFFFFFFFFFFFFFFFFFFFFFFFFFFFFFFFFFFF AND PUSH20 0xFFFFFFFFFFFFFFFFFFFFFFFFFFFFFFFFFFFFFFFF AND DUP2 MSTORE PUSH1 0x20 ADD SWAP1 DUP2 MSTORE PUSH1 0x20 ADD PUSH1 0x0 KECCAK256 PUSH1 0x0 DUP3 DUP3 SLOAD PUSH2 0x11AF SWAP2 SWAP1 PUSH2 0x2526 JUMP JUMPDEST SWAP3 POP POP DUP2 SWAP1 SSTORE POP DUP2 PUSH1 0x2 PUSH1 0x0 DUP4 DUP2 MSTORE PUSH1 0x20 ADD SWAP1 DUP2 MSTORE PUSH1 0x20 ADD PUSH1 0x0 KECCAK256 PUSH1 0x0 PUSH2 0x100 EXP DUP2 SLOAD DUP2 PUSH20 0xFFFFFFFFFFFFFFFFFFFFFFFFFFFFFFFFFFFFFFFF MUL NOT AND SWAP1 DUP4 PUSH20 0xFFFFFFFFFFFFFFFFFFFFFFFFFFFFFFFFFFFFFFFF AND MUL OR SWAP1 SSTORE POP DUP1 DUP3 PUSH20 0xFFFFFFFFFFFFFFFFFFFFFFFFFFFFFFFFFFFFFFFF AND PUSH1 0x0 PUSH20 0xFFFFFFFFFFFFFFFFFFFFFFFFFFFFFFFFFFFFFFFF AND PUSH32 0xDDF252AD1BE2C89B69C2B068FC378DAA952BA7F163C4A11628F55A4DF523B3EF PUSH1 0x40 MLOAD PUSH1 0x40 MLOAD DUP1 SWAP2 SUB SWAP1 LOG4 POP POP JUMP JUMPDEST PUSH1 0x0 PUSH2 0x1273 DUP3 PUSH2 0xF49 JUMP JUMPDEST PUSH2 0x12B2 JUMPI PUSH1 0x40 MLOAD PUSH32 0x8C379A000000000000000000000000000000000000000000000000000000000 DUP2 MSTORE PUSH1 0x4 ADD PUSH2 0x12A9 SWAP1 PUSH2 0x225A JUMP JUMPDEST PUSH1 0x40 MLOAD DUP1 SWAP2 SUB SWAP1 REVERT JUMPDEST PUSH1 0x0 PUSH2 0x12BD DUP4 PUSH2 0x9E2 JUMP JUMPDEST SWAP1 POP DUP1 PUSH20 0xFFFFFFFFFFFFFFFFFFFFFFFFFFFFFFFFFFFFFFFF AND DUP5 PUSH20 0xFFFFFFFFFFFFFFFFFFFFFFFFFFFFFFFFFFFFFFFF AND EQ DUP1 PUSH2 0x132C JUMPI POP DUP4 PUSH20 0xFFFFFFFFFFFFFFFFFFFFFFFFFFFFFFFFFFFFFFFF AND PUSH2 0x1314 DUP5 PUSH2 0x5F3 JUMP JUMPDEST PUSH20 0xFFFFFFFFFFFFFFFFFFFFFFFFFFFFFFFFFFFFFFFF AND EQ JUMPDEST DUP1 PUSH2 0x133D JUMPI POP PUSH2 0x133C DUP2 DUP6 PUSH2 0xE4B JUMP JUMPDEST JUMPDEST SWAP2 POP POP SWAP3 SWAP2 POP POP JUMP JUMPDEST DUP3 PUSH20 0xFFFFFFFFFFFFFFFFFFFFFFFFFFFFFFFFFFFFFFFF AND PUSH2 0x1366 DUP3 PUSH2 0x9E2 JUMP JUMPDEST PUSH20 0xFFFFFFFFFFFFFFFFFFFFFFFFFFFFFFFFFFFFFFFF AND EQ PUSH2 0x13BC JUMPI PUSH1 0x40 MLOAD PUSH32 0x8C379A000000000000000000000000000000000000000000000000000000000 DUP2 MSTORE PUSH1 0x4 ADD PUSH2 0x13B3 SWAP1 PUSH2 0x231A JUMP JUMPDEST PUSH1 0x40 MLOAD DUP1 SWAP2 SUB SWAP1 REVERT JUMPDEST PUSH1 0x0 PUSH20 0xFFFFFFFFFFFFFFFFFFFFFFFFFFFFFFFFFFFFFFFF AND DUP3 PUSH20 0xFFFFFFFFFFFFFFFFFFFFFFFFFFFFFFFFFFFFFFFF AND EQ ISZERO PUSH2 0x142C JUMPI PUSH1 0x40 MLOAD PUSH32 0x8C379A000000000000000000000000000000000000000000000000000000000 DUP2 MSTORE PUSH1 0x4 ADD PUSH2 0x1423 SWAP1 PUSH2 0x221A JUMP JUMPDEST PUSH1 0x40 MLOAD DUP1 SWAP2 SUB SWAP1 REVERT JUMPDEST PUSH2 0x1437 DUP4 DUP4 DUP4 PUSH2 0x18E3 JUMP JUMPDEST PUSH2 0x1442 PUSH1 0x0 DUP3 PUSH2 0xFBD JUMP JUMPDEST PUSH1 0x1 PUSH1 0x3 PUSH1 0x0 DUP6 PUSH20 0xFFFFFFFFFFFFFFFFFFFFFFFFFFFFFFFFFFFFFFFF AND PUSH20 0xFFFFFFFFFFFFFFFFFFFFFFFFFFFFFFFFFFFFFFFF AND DUP2 MSTORE PUSH1 0x20 ADD SWAP1 DUP2 MSTORE PUSH1 0x20 ADD PUSH1 0x0 KECCAK256 PUSH1 0x0 DUP3 DUP3 SLOAD PUSH2 0x1492 SWAP2 SWAP1 PUSH2 0x25AD JUMP JUMPDEST SWAP3 POP POP DUP2 SWAP1 SSTORE POP PUSH1 0x1 PUSH1 0x3 PUSH1 0x0 DUP5 PUSH20 0xFFFFFFFFFFFFFFFFFFFFFFFFFFFFFFFFFFFFFFFF AND PUSH20 0xFFFFFFFFFFFFFFFFFFFFFFFFFFFFFFFFFFFFFFFF AND DUP2 MSTORE PUSH1 0x20 ADD SWAP1 DUP2 MSTORE PUSH1 0x20 ADD PUSH1 0x0 KECCAK256 PUSH1 0x0 DUP3 DUP3 SLOAD PUSH2 0x14E9 SWAP2 SWAP1 PUSH2 0x2526 JUMP JUMPDEST SWAP3 POP POP DUP2 SWAP1 SSTORE POP DUP2 PUSH1 0x2 PUSH1 0x0 DUP4 DUP2 MSTORE PUSH1 0x20 ADD SWAP1 DUP2 MSTORE PUSH1 0x20 ADD PUSH1 0x0 KECCAK256 PUSH1 0x0 PUSH2 0x100 EXP DUP2 SLOAD DUP2 PUSH20 0xFFFFFFFFFFFFFFFFFFFFFFFFFFFFFFFFFFFFFFFF MUL NOT AND SWAP1 DUP4 PUSH20 0xFFFFFFFFFFFFFFFFFFFFFFFFFFFFFFFFFFFFFFFF AND MUL OR SWAP1 SSTORE POP DUP1 DUP3 PUSH20 0xFFFFFFFFFFFFFFFFFFFFFFFFFFFFFFFFFFFFFFFF AND DUP5 PUSH20 0xFFFFFFFFFFFFFFFFFFFFFFFFFFFFFFFFFFFFFFFF AND PUSH32 0xDDF252AD1BE2C89B69C2B068FC378DAA952BA7F163C4A11628F55A4DF523B3EF PUSH1 0x40 MLOAD PUSH1 0x40 MLOAD DUP1 SWAP2 SUB SWAP1 LOG4 POP POP POP JUMP JUMPDEST DUP2 PUSH20 0xFFFFFFFFFFFFFFFFFFFFFFFFFFFFFFFFFFFFFFFF AND DUP4 PUSH20 0xFFFFFFFFFFFFFFFFFFFFFFFFFFFFFFFFFFFFFFFF AND EQ ISZERO PUSH2 0x1611 JUMPI PUSH1 0x40 MLOAD PUSH32 0x8C379A000000000000000000000000000000000000000000000000000000000 DUP2 MSTORE PUSH1 0x4 ADD PUSH2 0x1608 SWAP1 PUSH2 0x223A JUMP JUMPDEST PUSH1 0x40 MLOAD DUP1 SWAP2 SUB SWAP1 REVERT JUMPDEST DUP1 PUSH1 0x5 PUSH1 0x0 DUP6 PUSH20 0xFFFFFFFFFFFFFFFFFFFFFFFFFFFFFFFFFFFFFFFF AND PUSH20 0xFFFFFFFFFFFFFFFFFFFFFFFFFFFFFFFFFFFFFFFF AND DUP2 MSTORE PUSH1 0x20 ADD SWAP1 DUP2 MSTORE PUSH1 0x20 ADD PUSH1 0x0 KECCAK256 PUSH1 0x0 DUP5 PUSH20 0xFFFFFFFFFFFFFFFFFFFFFFFFFFFFFFFFFFFFFFFF AND PUSH20 0xFFFFFFFFFFFFFFFFFFFFFFFFFFFFFFFFFFFFFFFF AND DUP2 MSTORE PUSH1 0x20 ADD SWAP1 DUP2 MSTORE PUSH1 0x20 ADD PUSH1 0x0 KECCAK256 PUSH1 0x0 PUSH2 0x100 EXP DUP2 SLOAD DUP2 PUSH1 0xFF MUL NOT AND SWAP1 DUP4 ISZERO ISZERO MUL OR SWAP1 SSTORE POP DUP2 PUSH20 0xFFFFFFFFFFFFFFFFFFFFFFFFFFFFFFFFFFFFFFFF AND DUP4 PUSH20 0xFFFFFFFFFFFFFFFFFFFFFFFFFFFFFFFFFFFFFFFF AND PUSH32 0x17307EAB39AB6107E8899845AD3D59BD9653F200F220920489CA2B5937696C31 DUP4 PUSH1 0x40 MLOAD PUSH2 0x1702 SWAP2 SWAP1 PUSH2 0x219D JUMP JUMPDEST PUSH1 0x40 MLOAD DUP1 SWAP2 SUB SWAP1 LOG3 POP POP POP JUMP JUMPDEST PUSH2 0x171A DUP5 DUP5 DUP5 PUSH2 0x1346 JUMP JUMPDEST PUSH2 0x1726 DUP5 DUP5 DUP5 DUP5 PUSH2 0x18E8 JUMP JUMPDEST PUSH2 0x1765 JUMPI PUSH1 0x40 MLOAD PUSH32 0x8C379A000000000000000000000000000000000000000000000000000000000 DUP2 MSTORE PUSH1 0x4 ADD PUSH2 0x175C SWAP1 PUSH2 0x21DA JUMP JUMPDEST PUSH1 0x40 MLOAD DUP1 SWAP2 SUB SWAP1 REVERT JUMPDEST POP POP POP POP JUMP JUMPDEST PUSH1 0x60 PUSH1 0x40 MLOAD DUP1 PUSH1 0x20 ADD PUSH1 0x40 MSTORE DUP1 PUSH1 0x0 DUP2 MSTORE POP SWAP1 POP SWAP1 JUMP JUMPDEST PUSH1 0x60 PUSH1 0x0 DUP3 EQ ISZERO PUSH2 0x17CA JUMPI PUSH1 0x40 MLOAD DUP1 PUSH1 0x40 ADD PUSH1 0x40 MSTORE DUP1 PUSH1 0x1 DUP2 MSTORE PUSH1 0x20 ADD PUSH32 0x3000000000000000000000000000000000000000000000000000000000000000 DUP2 MSTORE POP SWAP1 POP PUSH2 0x18DE JUMP JUMPDEST PUSH1 0x0 DUP3 SWAP1 POP PUSH1 0x0 JUMPDEST PUSH1 0x0 DUP3 EQ PUSH2 0x17FC JUMPI DUP1 DUP1 PUSH2 0x17E5 SWAP1 PUSH2 0x2707 JUMP JUMPDEST SWAP2 POP POP PUSH1 0xA DUP3 PUSH2 0x17F5 SWAP2 SWAP1 PUSH2 0x257C JUMP JUMPDEST SWAP2 POP PUSH2 0x17D2 JUMP JUMPDEST PUSH1 0x0 DUP2 PUSH8 0xFFFFFFFFFFFFFFFF DUP2 GT ISZERO PUSH2 0x1818 JUMPI PUSH2 0x1817 PUSH2 0x283D JUMP JUMPDEST JUMPDEST PUSH1 0x40 MLOAD SWAP1 DUP1 DUP3 MSTORE DUP1 PUSH1 0x1F ADD PUSH1 0x1F NOT AND PUSH1 0x20 ADD DUP3 ADD PUSH1 0x40 MSTORE DUP1 ISZERO PUSH2 0x184A JUMPI DUP2 PUSH1 0x20 ADD PUSH1 0x1 DUP3 MUL DUP1 CALLDATASIZE DUP4 CALLDATACOPY DUP1 DUP3 ADD SWAP2 POP POP SWAP1 POP JUMPDEST POP SWAP1 POP JUMPDEST PUSH1 0x0 DUP6 EQ PUSH2 0x18D7 JUMPI PUSH1 0x1 DUP3 PUSH2 0x1863 SWAP2 SWAP1 PUSH2 0x25AD JUMP JUMPDEST SWAP2 POP PUSH1 0xA DUP6 PUSH2 0x1872 SWAP2 SWAP1 PUSH2 0x2750 JUMP JUMPDEST PUSH1 0x30 PUSH2 0x187E SWAP2 SWAP1 PUSH2 0x2526 JUMP JUMPDEST PUSH1 0xF8 SHL DUP2 DUP4 DUP2 MLOAD DUP2 LT PUSH2 0x1894 JUMPI PUSH2 0x1893 PUSH2 0x280E JUMP JUMPDEST JUMPDEST PUSH1 0x20 ADD ADD SWAP1 PUSH31 0xFFFFFFFFFFFFFFFFFFFFFFFFFFFFFFFFFFFFFFFFFFFFFFFFFFFFFFFFFFFFFF NOT AND SWAP1 DUP2 PUSH1 0x0 BYTE SWAP1 MSTORE8 POP PUSH1 0xA DUP6 PUSH2 0x18D0 SWAP2 SWAP1 PUSH2 0x257C JUMP JUMPDEST SWAP5 POP PUSH2 0x184E JUMP JUMPDEST DUP1 SWAP4 POP POP POP POP JUMPDEST SWAP2 SWAP1 POP JUMP JUMPDEST POP POP POP JUMP JUMPDEST PUSH1 0x0 PUSH2 0x1909 DUP5 PUSH20 0xFFFFFFFFFFFFFFFFFFFFFFFFFFFFFFFFFFFFFFFF AND PUSH2 0x1A7F JUMP JUMPDEST ISZERO PUSH2 0x1A72 JUMPI DUP4 PUSH20 0xFFFFFFFFFFFFFFFFFFFFFFFFFFFFFFFFFFFFFFFF AND PUSH4 0x150B7A02 PUSH2 0x1932 PUSH2 0xFB5 JUMP JUMPDEST DUP8 DUP7 DUP7 PUSH1 0x40 MLOAD DUP6 PUSH4 0xFFFFFFFF AND PUSH1 0xE0 SHL DUP2 MSTORE PUSH1 0x4 ADD PUSH2 0x1954 SWAP5 SWAP4 SWAP3 SWAP2 SWAP1 PUSH2 0x2151 JUMP JUMPDEST PUSH1 0x20 PUSH1 0x40 MLOAD DUP1 DUP4 SUB DUP2 PUSH1 0x0 DUP8 DUP1 EXTCODESIZE ISZERO DUP1 ISZERO PUSH2 0x196E JUMPI PUSH1 0x0 DUP1 REVERT JUMPDEST POP GAS CALL SWAP3 POP POP POP DUP1 ISZERO PUSH2 0x199F JUMPI POP PUSH1 0x40 MLOAD RETURNDATASIZE PUSH1 0x1F NOT PUSH1 0x1F DUP3 ADD AND DUP3 ADD DUP1 PUSH1 0x40 MSTORE POP DUP2 ADD SWAP1 PUSH2 0x199C SWAP2 SWAP1 PUSH2 0x1D5B JUMP JUMPDEST PUSH1 0x1 JUMPDEST PUSH2 0x1A22 JUMPI RETURNDATASIZE DUP1 PUSH1 0x0 DUP2 EQ PUSH2 0x19CF JUMPI PUSH1 0x40 MLOAD SWAP2 POP PUSH1 0x1F NOT PUSH1 0x3F RETURNDATASIZE ADD AND DUP3 ADD PUSH1 0x40 MSTORE RETURNDATASIZE DUP3 MSTORE RETURNDATASIZE PUSH1 0x0 PUSH1 0x20 DUP5 ADD RETURNDATACOPY PUSH2 0x19D4 JUMP JUMPDEST PUSH1 0x60 SWAP2 POP JUMPDEST POP PUSH1 0x0 DUP2 MLOAD EQ ISZERO PUSH2 0x1A1A JUMPI PUSH1 0x40 MLOAD PUSH32 0x8C379A000000000000000000000000000000000000000000000000000000000 DUP2 MSTORE PUSH1 0x4 ADD PUSH2 0x1A11 SWAP1 PUSH2 0x21DA JUMP JUMPDEST PUSH1 0x40 MLOAD DUP1 SWAP2 SUB SWAP1 REVERT JUMPDEST DUP1 MLOAD DUP2 PUSH1 0x20 ADD REVERT JUMPDEST PUSH4 0x150B7A02 PUSH1 0xE0 SHL PUSH28 0xFFFFFFFFFFFFFFFFFFFFFFFFFFFFFFFFFFFFFFFFFFFFFFFFFFFFFFFF NOT AND DUP2 PUSH28 0xFFFFFFFFFFFFFFFFFFFFFFFFFFFFFFFFFFFFFFFFFFFFFFFFFFFFFFFF NOT AND EQ SWAP2 POP POP PUSH2 0x1A77 JUMP JUMPDEST PUSH1 0x1 SWAP1 POP JUMPDEST SWAP5 SWAP4 POP POP POP POP JUMP JUMPDEST PUSH1 0x0 DUP1 DUP3 EXTCODESIZE SWAP1 POP PUSH1 0x0 DUP2 GT SWAP2 POP POP SWAP2 SWAP1 POP JUMP JUMPDEST PUSH1 0x0 PUSH2 0x1AA5 PUSH2 0x1AA0 DUP5 PUSH2 0x24B2 JUMP JUMPDEST PUSH2 0x248D JUMP JUMPDEST SWAP1 POP DUP3 DUP2 MSTORE PUSH1 0x20 DUP2 ADD DUP5 DUP5 DUP5 ADD GT ISZERO PUSH2 0x1AC1 JUMPI PUSH2 0x1AC0 PUSH2 0x2871 JUMP JUMPDEST JUMPDEST PUSH2 0x1ACC DUP5 DUP3 DUP6 PUSH2 0x2662 JUMP JUMPDEST POP SWAP4 SWAP3 POP POP POP JUMP JUMPDEST PUSH1 0x0 DUP2 CALLDATALOAD SWAP1 POP PUSH2 0x1AE3 DUP2 PUSH2 0x2CE9 JUMP JUMPDEST SWAP3 SWAP2 POP POP JUMP JUMPDEST PUSH1 0x0 DUP2 CALLDATALOAD SWAP1 POP PUSH2 0x1AF8 DUP2 PUSH2 0x2D00 JUMP JUMPDEST SWAP3 SWAP2 POP POP JUMP JUMPDEST PUSH1 0x0 DUP2 CALLDATALOAD SWAP1 POP PUSH2 0x1B0D DUP2 PUSH2 0x2D17 JUMP JUMPDEST SWAP3 SWAP2 POP POP JUMP JUMPDEST PUSH1 0x0 DUP2 MLOAD SWAP1 POP PUSH2 0x1B22 DUP2 PUSH2 0x2D17 JUMP JUMPDEST SWAP3 SWAP2 POP POP JUMP JUMPDEST PUSH1 0x0 DUP3 PUSH1 0x1F DUP4 ADD SLT PUSH2 0x1B3D JUMPI PUSH2 0x1B3C PUSH2 0x286C JUMP JUMPDEST JUMPDEST DUP2 CALLDATALOAD PUSH2 0x1B4D DUP5 DUP3 PUSH1 0x20 DUP7 ADD PUSH2 0x1A92 JUMP JUMPDEST SWAP2 POP POP SWAP3 SWAP2 POP POP JUMP JUMPDEST PUSH1 0x0 DUP2 CALLDATALOAD SWAP1 POP PUSH2 0x1B65 DUP2 PUSH2 0x2D2E JUMP JUMPDEST SWAP3 SWAP2 POP POP JUMP JUMPDEST PUSH1 0x0 PUSH1 0x20 DUP3 DUP5 SUB SLT ISZERO PUSH2 0x1B81 JUMPI PUSH2 0x1B80 PUSH2 0x287B JUMP JUMPDEST JUMPDEST PUSH1 0x0 PUSH2 0x1B8F DUP5 DUP3 DUP6 ADD PUSH2 0x1AD4 JUMP JUMPDEST SWAP2 POP POP SWAP3 SWAP2 POP POP JUMP JUMPDEST PUSH1 0x0 DUP1 PUSH1 0x40 DUP4 DUP6 SUB SLT ISZERO PUSH2 0x1BAF JUMPI PUSH2 0x1BAE PUSH2 0x287B JUMP JUMPDEST JUMPDEST PUSH1 0x0 PUSH2 0x1BBD DUP6 DUP3 DUP7 ADD PUSH2 0x1AD4 JUMP JUMPDEST SWAP3 POP POP PUSH1 0x20 PUSH2 0x1BCE DUP6 DUP3 DUP7 ADD PUSH2 0x1AD4 JUMP JUMPDEST SWAP2 POP POP SWAP3 POP SWAP3 SWAP1 POP JUMP JUMPDEST PUSH1 0x0 DUP1 PUSH1 0x0 PUSH1 0x60 DUP5 DUP7 SUB SLT ISZERO PUSH2 0x1BF1 JUMPI PUSH2 0x1BF0 PUSH2 0x287B JUMP JUMPDEST JUMPDEST PUSH1 0x0 PUSH2 0x1BFF DUP7 DUP3 DUP8 ADD PUSH2 0x1AD4 JUMP JUMPDEST SWAP4 POP POP PUSH1 0x20 PUSH2 0x1C10 DUP7 DUP3 DUP8 ADD PUSH2 0x1AD4 JUMP JUMPDEST SWAP3 POP POP PUSH1 0x40 PUSH2 0x1C21 DUP7 DUP3 DUP8 ADD PUSH2 0x1B56 JUMP JUMPDEST SWAP2 POP POP SWAP3 POP SWAP3 POP SWAP3 JUMP JUMPDEST PUSH1 0x0 DUP1 PUSH1 0x0 DUP1 PUSH1 0x80 DUP6 DUP8 SUB SLT ISZERO PUSH2 0x1C45 JUMPI PUSH2 0x1C44 PUSH2 0x287B JUMP JUMPDEST JUMPDEST PUSH1 0x0 PUSH2 0x1C53 DUP8 DUP3 DUP9 ADD PUSH2 0x1AD4 JUMP JUMPDEST SWAP5 POP POP PUSH1 0x20 PUSH2 0x1C64 DUP8 DUP3 DUP9 ADD PUSH2 0x1AD4 JUMP JUMPDEST SWAP4 POP POP PUSH1 0x40 PUSH2 0x1C75 DUP8 DUP3 DUP9 ADD PUSH2 0x1B56 JUMP JUMPDEST SWAP3 POP POP PUSH1 0x60 DUP6 ADD CALLDATALOAD PUSH8 0xFFFFFFFFFFFFFFFF DUP2 GT ISZERO PUSH2 0x1C96 JUMPI PUSH2 0x1C95 PUSH2 0x2876 JUMP JUMPDEST JUMPDEST PUSH2 0x1CA2 DUP8 DUP3 DUP9 ADD PUSH2 0x1B28 JUMP JUMPDEST SWAP2 POP POP SWAP3 SWAP6 SWAP2 SWAP5 POP SWAP3 POP JUMP JUMPDEST PUSH1 0x0 DUP1 PUSH1 0x40 DUP4 DUP6 SUB SLT ISZERO PUSH2 0x1CC5 JUMPI PUSH2 0x1CC4 PUSH2 0x287B JUMP JUMPDEST JUMPDEST PUSH1 0x0 PUSH2 0x1CD3 DUP6 DUP3 DUP7 ADD PUSH2 0x1AD4 JUMP JUMPDEST SWAP3 POP POP PUSH1 0x20 PUSH2 0x1CE4 DUP6 DUP3 DUP7 ADD PUSH2 0x1AE9 JUMP JUMPDEST SWAP2 POP POP SWAP3 POP SWAP3 SWAP1 POP JUMP JUMPDEST PUSH1 0x0 DUP1 PUSH1 0x40 DUP4 DUP6 SUB SLT ISZERO PUSH2 0x1D05 JUMPI PUSH2 0x1D04 PUSH2 0x287B JUMP JUMPDEST JUMPDEST PUSH1 0x0 PUSH2 0x1D13 DUP6 DUP3 DUP7 ADD PUSH2 0x1AD4 JUMP JUMPDEST SWAP3 POP POP PUSH1 0x20 PUSH2 0x1D24 DUP6 DUP3 DUP7 ADD PUSH2 0x1B56 JUMP JUMPDEST SWAP2 POP POP SWAP3 POP SWAP3 SWAP1 POP JUMP JUMPDEST PUSH1 0x0 PUSH1 0x20 DUP3 DUP5 SUB SLT ISZERO PUSH2 0x1D44 JUMPI PUSH2 0x1D43 PUSH2 0x287B JUMP JUMPDEST JUMPDEST PUSH1 0x0 PUSH2 0x1D52 DUP5 DUP3 DUP6 ADD PUSH2 0x1AFE JUMP JUMPDEST SWAP2 POP POP SWAP3 SWAP2 POP POP JUMP JUMPDEST PUSH1 0x0 PUSH1 0x20 DUP3 DUP5 SUB SLT ISZERO PUSH2 0x1D71 JUMPI PUSH2 0x1D70 PUSH2 0x287B JUMP JUMPDEST JUMPDEST PUSH1 0x0 PUSH2 0x1D7F DUP5 DUP3 DUP6 ADD PUSH2 0x1B13 JUMP JUMPDEST SWAP2 POP POP SWAP3 SWAP2 POP POP JUMP JUMPDEST PUSH1 0x0 PUSH1 0x20 DUP3 DUP5 SUB SLT ISZERO PUSH2 0x1D9E JUMPI PUSH2 0x1D9D PUSH2 0x287B JUMP JUMPDEST JUMPDEST PUSH1 0x0 PUSH2 0x1DAC DUP5 DUP3 DUP6 ADD PUSH2 0x1B56 JUMP JUMPDEST SWAP2 POP POP SWAP3 SWAP2 POP POP JUMP JUMPDEST PUSH1 0x0 DUP1 PUSH1 0x40 DUP4 DUP6 SUB SLT ISZERO PUSH2 0x1DCC JUMPI PUSH2 0x1DCB PUSH2 0x287B JUMP JUMPDEST JUMPDEST PUSH1 0x0 PUSH2 0x1DDA DUP6 DUP3 DUP7 ADD PUSH2 0x1B56 JUMP JUMPDEST SWAP3 POP POP PUSH1 0x20 PUSH2 0x1DEB DUP6 DUP3 DUP7 ADD PUSH2 0x1B56 JUMP JUMPDEST SWAP2 POP POP SWAP3 POP SWAP3 SWAP1 POP JUMP JUMPDEST PUSH2 0x1DFE DUP2 PUSH2 0x25E1 JUMP JUMPDEST DUP3 MSTORE POP POP JUMP JUMPDEST PUSH2 0x1E0D DUP2 PUSH2 0x25F3 JUMP JUMPDEST DUP3 MSTORE POP POP JUMP JUMPDEST PUSH1 0x0 PUSH2 0x1E1E DUP3 PUSH2 0x24E3 JUMP JUMPDEST PUSH2 0x1E28 DUP2 DUP6 PUSH2 0x24F9 JUMP JUMPDEST SWAP4 POP PUSH2 0x1E38 DUP2 DUP6 PUSH1 0x20 DUP7 ADD PUSH2 0x2671 JUMP JUMPDEST PUSH2 0x1E41 DUP2 PUSH2 0x2880 JUMP JUMPDEST DUP5 ADD SWAP2 POP POP SWAP3 SWAP2 POP POP JUMP JUMPDEST PUSH1 0x0 PUSH2 0x1E57 DUP3 PUSH2 0x24EE JUMP JUMPDEST PUSH2 0x1E61 DUP2 DUP6 PUSH2 0x250A JUMP JUMPDEST SWAP4 POP PUSH2 0x1E71 DUP2 DUP6 PUSH1 0x20 DUP7 ADD PUSH2 0x2671 JUMP JUMPDEST PUSH2 0x1E7A DUP2 PUSH2 0x2880 JUMP JUMPDEST DUP5 ADD SWAP2 POP POP SWAP3 SWAP2 POP POP JUMP JUMPDEST PUSH1 0x0 PUSH2 0x1E90 DUP3 PUSH2 0x24EE JUMP JUMPDEST PUSH2 0x1E9A DUP2 DUP6 PUSH2 0x251B JUMP JUMPDEST SWAP4 POP PUSH2 0x1EAA DUP2 DUP6 PUSH1 0x20 DUP7 ADD PUSH2 0x2671 JUMP JUMPDEST DUP1 DUP5 ADD SWAP2 POP POP SWAP3 SWAP2 POP POP JUMP JUMPDEST PUSH1 0x0 PUSH2 0x1EC3 PUSH1 0x32 DUP4 PUSH2 0x250A JUMP JUMPDEST SWAP2 POP PUSH2 0x1ECE DUP3 PUSH2 0x2891 JUMP JUMPDEST PUSH1 0x40 DUP3 ADD SWAP1 POP SWAP2 SWAP1 POP JUMP JUMPDEST PUSH1 0x0 PUSH2 0x1EE6 PUSH1 0x1C DUP4 PUSH2 0x250A JUMP JUMPDEST SWAP2 POP PUSH2 0x1EF1 DUP3 PUSH2 0x28E0 JUMP JUMPDEST PUSH1 0x20 DUP3 ADD SWAP1 POP SWAP2 SWAP1 POP JUMP JUMPDEST PUSH1 0x0 PUSH2 0x1F09 PUSH1 0x24 DUP4 PUSH2 0x250A JUMP JUMPDEST SWAP2 POP PUSH2 0x1F14 DUP3 PUSH2 0x2909 JUMP JUMPDEST PUSH1 0x40 DUP3 ADD SWAP1 POP SWAP2 SWAP1 POP JUMP JUMPDEST PUSH1 0x0 PUSH2 0x1F2C PUSH1 0x19 DUP4 PUSH2 0x250A JUMP JUMPDEST SWAP2 POP PUSH2 0x1F37 DUP3 PUSH2 0x2958 JUMP JUMPDEST PUSH1 0x20 DUP3 ADD SWAP1 POP SWAP2 SWAP1 POP JUMP JUMPDEST PUSH1 0x0 PUSH2 0x1F4F PUSH1 0x2C DUP4 PUSH2 0x250A JUMP JUMPDEST SWAP2 POP PUSH2 0x1F5A DUP3 PUSH2 0x2981 JUMP JUMPDEST PUSH1 0x40 DUP3 ADD SWAP1 POP SWAP2 SWAP1 POP JUMP JUMPDEST PUSH1 0x0 PUSH2 0x1F72 PUSH1 0x38 DUP4 PUSH2 0x250A JUMP JUMPDEST SWAP2 POP PUSH2 0x1F7D DUP3 PUSH2 0x29D0 JUMP JUMPDEST PUSH1 0x40 DUP3 ADD SWAP1 POP SWAP2 SWAP1 POP JUMP JUMPDEST PUSH1 0x0 PUSH2 0x1F95 PUSH1 0x2A DUP4 PUSH2 0x250A JUMP JUMPDEST SWAP2 POP PUSH2 0x1FA0 DUP3 PUSH2 0x2A1F JUMP JUMPDEST PUSH1 0x40 DUP3 ADD SWAP1 POP SWAP2 SWAP1 POP JUMP JUMPDEST PUSH1 0x0 PUSH2 0x1FB8 PUSH1 0x29 DUP4 PUSH2 0x250A JUMP JUMPDEST SWAP2 POP PUSH2 0x1FC3 DUP3 PUSH2 0x2A6E JUMP JUMPDEST PUSH1 0x40 DUP3 ADD SWAP1 POP SWAP2 SWAP1 POP JUMP JUMPDEST PUSH1 0x0 PUSH2 0x1FDB PUSH1 0x20 DUP4 PUSH2 0x250A JUMP JUMPDEST SWAP2 POP PUSH2 0x1FE6 DUP3 PUSH2 0x2ABD JUMP JUMPDEST PUSH1 0x20 DUP3 ADD SWAP1 POP SWAP2 SWAP1 POP JUMP JUMPDEST PUSH1 0x0 PUSH2 0x1FFE PUSH1 0x2C DUP4 PUSH2 0x250A JUMP JUMPDEST SWAP2 POP PUSH2 0x2009 DUP3 PUSH2 0x2AE6 JUMP JUMPDEST PUSH1 0x40 DUP3 ADD SWAP1 POP SWAP2 SWAP1 POP JUMP JUMPDEST PUSH1 0x0 PUSH2 0x2021 PUSH1 0x29 DUP4 PUSH2 0x250A JUMP JUMPDEST SWAP2 POP PUSH2 0x202C DUP3 PUSH2 0x2B35 JUMP JUMPDEST PUSH1 0x40 DUP3 ADD SWAP1 POP SWAP2 SWAP1 POP JUMP JUMPDEST PUSH1 0x0 PUSH2 0x2044 PUSH1 0x2F DUP4 PUSH2 0x250A JUMP JUMPDEST SWAP2 POP PUSH2 0x204F DUP3 PUSH2 0x2B84 JUMP JUMPDEST PUSH1 0x40 DUP3 ADD SWAP1 POP SWAP2 SWAP1 POP JUMP JUMPDEST PUSH1 0x0 PUSH2 0x2067 PUSH1 0x26 DUP4 PUSH2 0x250A JUMP JUMPDEST SWAP2 POP PUSH2 0x2072 DUP3 PUSH2 0x2BD3 JUMP JUMPDEST PUSH1 0x40 DUP3 ADD SWAP1 POP SWAP2 SWAP1 POP JUMP JUMPDEST PUSH1 0x0 PUSH2 0x208A PUSH1 0x21 DUP4 PUSH2 0x250A JUMP JUMPDEST SWAP2 POP PUSH2 0x2095 DUP3 PUSH2 0x2C22 JUMP JUMPDEST PUSH1 0x40 DUP3 ADD SWAP1 POP SWAP2 SWAP1 POP JUMP JUMPDEST PUSH1 0x0 PUSH2 0x20AD PUSH1 0x31 DUP4 PUSH2 0x250A JUMP JUMPDEST SWAP2 POP PUSH2 0x20B8 DUP3 PUSH2 0x2C71 JUMP JUMPDEST PUSH1 0x40 DUP3 ADD SWAP1 POP SWAP2 SWAP1 POP JUMP JUMPDEST PUSH1 0x0 PUSH2 0x20D0 PUSH1 0x20 DUP4 PUSH2 0x250A JUMP JUMPDEST SWAP2 POP PUSH2 0x20DB DUP3 PUSH2 0x2CC0 JUMP JUMPDEST PUSH1 0x20 DUP3 ADD SWAP1 POP SWAP2 SWAP1 POP JUMP JUMPDEST DUP1 DUP3 MSTORE POP POP JUMP JUMPDEST DUP1 DUP3 MSTORE POP POP JUMP JUMPDEST PUSH2 0x20FD DUP2 PUSH2 0x264B JUMP JUMPDEST DUP3 MSTORE POP POP JUMP JUMPDEST PUSH2 0x210C DUP2 PUSH2 0x2655 JUMP JUMPDEST DUP3 MSTORE POP POP JUMP JUMPDEST PUSH1 0x0 PUSH2 0x211E DUP3 DUP6 PUSH2 0x1E85 JUMP JUMPDEST SWAP2 POP PUSH2 0x212A DUP3 DUP5 PUSH2 0x1E85 JUMP JUMPDEST SWAP2 POP DUP2 SWAP1 POP SWAP4 SWAP3 POP POP POP JUMP JUMPDEST PUSH1 0x0 PUSH1 0x20 DUP3 ADD SWAP1 POP PUSH2 0x214B PUSH1 0x0 DUP4 ADD DUP5 PUSH2 0x1DF5 JUMP JUMPDEST SWAP3 SWAP2 POP POP JUMP JUMPDEST PUSH1 0x0 PUSH1 0x80 DUP3 ADD SWAP1 POP PUSH2 0x2166 PUSH1 0x0 DUP4 ADD DUP8 PUSH2 0x1DF5 JUMP JUMPDEST PUSH2 0x2173 PUSH1 0x20 DUP4 ADD DUP7 PUSH2 0x1DF5 JUMP JUMPDEST PUSH2 0x2180 PUSH1 0x40 DUP4 ADD DUP6 PUSH2 0x20F4 JUMP JUMPDEST DUP2 DUP2 SUB PUSH1 0x60 DUP4 ADD MSTORE PUSH2 0x2192 DUP2 DUP5 PUSH2 0x1E13 JUMP JUMPDEST SWAP1 POP SWAP6 SWAP5 POP POP POP POP POP JUMP JUMPDEST PUSH1 0x0 PUSH1 0x20 DUP3 ADD SWAP1 POP PUSH2 0x21B2 PUSH1 0x0 DUP4 ADD DUP5 PUSH2 0x1E04 JUMP JUMPDEST SWAP3 SWAP2 POP POP JUMP JUMPDEST PUSH1 0x0 PUSH1 0x20 DUP3 ADD SWAP1 POP DUP2 DUP2 SUB PUSH1 0x0 DUP4 ADD MSTORE PUSH2 0x21D2 DUP2 DUP5 PUSH2 0x1E4C JUMP JUMPDEST SWAP1 POP SWAP3 SWAP2 POP POP JUMP JUMPDEST PUSH1 0x0 PUSH1 0x20 DUP3 ADD SWAP1 POP DUP2 DUP2 SUB PUSH1 0x0 DUP4 ADD MSTORE PUSH2 0x21F3 DUP2 PUSH2 0x1EB6 JUMP JUMPDEST SWAP1 POP SWAP2 SWAP1 POP JUMP JUMPDEST PUSH1 0x0 PUSH1 0x20 DUP3 ADD SWAP1 POP DUP2 DUP2 SUB PUSH1 0x0 DUP4 ADD MSTORE PUSH2 0x2213 DUP2 PUSH2 0x1ED9 JUMP JUMPDEST SWAP1 POP SWAP2 SWAP1 POP JUMP JUMPDEST PUSH1 0x0 PUSH1 0x20 DUP3 ADD SWAP1 POP DUP2 DUP2 SUB PUSH1 0x0 DUP4 ADD MSTORE PUSH2 0x2233 DUP2 PUSH2 0x1EFC JUMP JUMPDEST SWAP1 POP SWAP2 SWAP1 POP JUMP JUMPDEST PUSH1 0x0 PUSH1 0x20 DUP3 ADD SWAP1 POP DUP2 DUP2 SUB PUSH1 0x0 DUP4 ADD MSTORE PUSH2 0x2253 DUP2 PUSH2 0x1F1F JUMP JUMPDEST SWAP1 POP SWAP2 SWAP1 POP JUMP JUMPDEST PUSH1 0x0 PUSH1 0x20 DUP3 ADD SWAP1 POP DUP2 DUP2 SUB PUSH1 0x0 DUP4 ADD MSTORE PUSH2 0x2273 DUP2 PUSH2 0x1F42 JUMP JUMPDEST SWAP1 POP SWAP2 SWAP1 POP JUMP JUMPDEST PUSH1 0x0 PUSH1 0x20 DUP3 ADD SWAP1 POP DUP2 DUP2 SUB PUSH1 0x0 DUP4 ADD MSTORE PUSH2 0x2293 DUP2 PUSH2 0x1F65 JUMP JUMPDEST SWAP1 POP SWAP2 SWAP1 POP JUMP JUMPDEST PUSH1 0x0 PUSH1 0x20 DUP3 ADD SWAP1 POP DUP2 DUP2 SUB PUSH1 0x0 DUP4 ADD MSTORE PUSH2 0x22B3 DUP2 PUSH2 0x1F88 JUMP JUMPDEST SWAP1 POP SWAP2 SWAP1 POP JUMP JUMPDEST PUSH1 0x0 PUSH1 0x20 DUP3 ADD SWAP1 POP DUP2 DUP2 SUB PUSH1 0x0 DUP4 ADD MSTORE PUSH2 0x22D3 DUP2 PUSH2 0x1FAB JUMP JUMPDEST SWAP1 POP SWAP2 SWAP1 POP JUMP JUMPDEST PUSH1 0x0 PUSH1 0x20 DUP3 ADD SWAP1 POP DUP2 DUP2 SUB PUSH1 0x0 DUP4 ADD MSTORE PUSH2 0x22F3 DUP2 PUSH2 0x1FCE JUMP JUMPDEST SWAP1 POP SWAP2 SWAP1 POP JUMP JUMPDEST PUSH1 0x0 PUSH1 0x20 DUP3 ADD SWAP1 POP DUP2 DUP2 SUB PUSH1 0x0 DUP4 ADD MSTORE PUSH2 0x2313 DUP2 PUSH2 0x1FF1 JUMP JUMPDEST SWAP1 POP SWAP2 SWAP1 POP JUMP JUMPDEST PUSH1 0x0 PUSH1 0x20 DUP3 ADD SWAP1 POP DUP2 DUP2 SUB PUSH1 0x0 DUP4 ADD MSTORE PUSH2 0x2333 DUP2 PUSH2 0x2014 JUMP JUMPDEST SWAP1 POP SWAP2 SWAP1 POP JUMP JUMPDEST PUSH1 0x0 PUSH1 0x20 DUP3 ADD SWAP1 POP DUP2 DUP2 SUB PUSH1 0x0 DUP4 ADD MSTORE PUSH2 0x2353 DUP2 PUSH2 0x2037 JUMP JUMPDEST SWAP1 POP SWAP2 SWAP1 POP JUMP JUMPDEST PUSH1 0x0 PUSH1 0x20 DUP3 ADD SWAP1 POP DUP2 DUP2 SUB PUSH1 0x0 DUP4 ADD MSTORE PUSH2 0x2373 DUP2 PUSH2 0x205A JUMP JUMPDEST SWAP1 POP SWAP2 SWAP1 POP JUMP JUMPDEST PUSH1 0x0 PUSH1 0x20 DUP3 ADD SWAP1 POP DUP2 DUP2 SUB PUSH1 0x0 DUP4 ADD MSTORE PUSH2 0x2393 DUP2 PUSH2 0x207D JUMP JUMPDEST SWAP1 POP SWAP2 SWAP1 POP JUMP JUMPDEST PUSH1 0x0 PUSH1 0x20 DUP3 ADD SWAP1 POP DUP2 DUP2 SUB PUSH1 0x0 DUP4 ADD MSTORE PUSH2 0x23B3 DUP2 PUSH2 0x20A0 JUMP JUMPDEST SWAP1 POP SWAP2 SWAP1 POP JUMP JUMPDEST PUSH1 0x0 PUSH1 0x20 DUP3 ADD SWAP1 POP DUP2 DUP2 SUB PUSH1 0x0 DUP4 ADD MSTORE PUSH2 0x23D3 DUP2 PUSH2 0x20C3 JUMP JUMPDEST SWAP1 POP SWAP2 SWAP1 POP JUMP JUMPDEST PUSH1 0x0 PUSH1 0x40 DUP3 ADD SWAP1 POP PUSH2 0x23EF PUSH1 0x0 DUP4 ADD DUP6 PUSH2 0x20E6 JUMP JUMPDEST PUSH2 0x23FC PUSH1 0x20 DUP4 ADD DUP5 PUSH2 0x20ED JUMP JUMPDEST SWAP4 SWAP3 POP POP POP JUMP JUMPDEST PUSH1 0x0 PUSH1 0x20 DUP3 ADD SWAP1 POP PUSH2 0x2418 PUSH1 0x0 DUP4 ADD DUP5 PUSH2 0x20F4 JUMP JUMPDEST SWAP3 SWAP2 POP POP JUMP JUMPDEST PUSH1 0x0 PUSH1 0xE0 DUP3 ADD SWAP1 POP PUSH2 0x2433 PUSH1 0x0 DUP4 ADD DUP11 PUSH2 0x20F4 JUMP JUMPDEST PUSH2 0x2440 PUSH1 0x20 DUP4 ADD DUP10 PUSH2 0x20F4 JUMP JUMPDEST PUSH2 0x244D PUSH1 0x40 DUP4 ADD DUP9 PUSH2 0x20F4 JUMP JUMPDEST PUSH2 0x245A PUSH1 0x60 DUP4 ADD DUP8 PUSH2 0x20F4 JUMP JUMPDEST PUSH2 0x2467 PUSH1 0x80 DUP4 ADD DUP7 PUSH2 0x20F4 JUMP JUMPDEST PUSH2 0x2474 PUSH1 0xA0 DUP4 ADD DUP6 PUSH2 0x2103 JUMP JUMPDEST PUSH2 0x2481 PUSH1 0xC0 DUP4 ADD DUP5 PUSH2 0x1DF5 JUMP JUMPDEST SWAP9 SWAP8 POP POP POP POP POP POP POP POP JUMP JUMPDEST PUSH1 0x0 PUSH2 0x2497 PUSH2 0x24A8 JUMP JUMPDEST SWAP1 POP PUSH2 0x24A3 DUP3 DUP3 PUSH2 0x26D6 JUMP JUMPDEST SWAP2 SWAP1 POP JUMP JUMPDEST PUSH1 0x0 PUSH1 0x40 MLOAD SWAP1 POP SWAP1 JUMP JUMPDEST PUSH1 0x0 PUSH8 0xFFFFFFFFFFFFFFFF DUP3 GT ISZERO PUSH2 0x24CD JUMPI PUSH2 0x24CC PUSH2 0x283D JUMP JUMPDEST JUMPDEST PUSH2 0x24D6 DUP3 PUSH2 0x2880 JUMP JUMPDEST SWAP1 POP PUSH1 0x20 DUP2 ADD SWAP1 POP SWAP2 SWAP1 POP JUMP JUMPDEST PUSH1 0x0 DUP2 MLOAD SWAP1 POP SWAP2 SWAP1 POP JUMP JUMPDEST PUSH1 0x0 DUP2 MLOAD SWAP1 POP SWAP2 SWAP1 POP JUMP JUMPDEST PUSH1 0x0 DUP3 DUP3 MSTORE PUSH1 0x20 DUP3 ADD SWAP1 POP SWAP3 SWAP2 POP POP JUMP JUMPDEST PUSH1 0x0 DUP3 DUP3 MSTORE PUSH1 0x20 DUP3 ADD SWAP1 POP SWAP3 SWAP2 POP POP JUMP JUMPDEST PUSH1 0x0 DUP2 SWAP1 POP SWAP3 SWAP2 POP POP JUMP JUMPDEST PUSH1 0x0 PUSH2 0x2531 DUP3 PUSH2 0x264B JUMP JUMPDEST SWAP2 POP PUSH2 0x253C DUP4 PUSH2 0x264B JUMP JUMPDEST SWAP3 POP DUP3 PUSH32 0xFFFFFFFFFFFFFFFFFFFFFFFFFFFFFFFFFFFFFFFFFFFFFFFFFFFFFFFFFFFFFFFF SUB DUP3 GT ISZERO PUSH2 0x2571 JUMPI PUSH2 0x2570 PUSH2 0x2781 JUMP JUMPDEST JUMPDEST DUP3 DUP3 ADD SWAP1 POP SWAP3 SWAP2 POP POP JUMP JUMPDEST PUSH1 0x0 PUSH2 0x2587 DUP3 PUSH2 0x264B JUMP JUMPDEST SWAP2 POP PUSH2 0x2592 DUP4 PUSH2 0x264B JUMP JUMPDEST SWAP3 POP DUP3 PUSH2 0x25A2 JUMPI PUSH2 0x25A1 PUSH2 0x27B0 JUMP JUMPDEST JUMPDEST DUP3 DUP3 DIV SWAP1 POP SWAP3 SWAP2 POP POP JUMP JUMPDEST PUSH1 0x0 PUSH2 0x25B8 DUP3 PUSH2 0x264B JUMP JUMPDEST SWAP2 POP PUSH2 0x25C3 DUP4 PUSH2 0x264B JUMP JUMPDEST SWAP3 POP DUP3 DUP3 LT ISZERO PUSH2 0x25D6 JUMPI PUSH2 0x25D5 PUSH2 0x2781 JUMP JUMPDEST JUMPDEST DUP3 DUP3 SUB SWAP1 POP SWAP3 SWAP2 POP POP JUMP JUMPDEST PUSH1 0x0 PUSH2 0x25EC DUP3 PUSH2 0x262B JUMP JUMPDEST SWAP1 POP SWAP2 SWAP1 POP JUMP JUMPDEST PUSH1 0x0 DUP2 ISZERO ISZERO SWAP1 POP SWAP2 SWAP1 POP JUMP JUMPDEST PUSH1 0x0 PUSH32 0xFFFFFFFF00000000000000000000000000000000000000000000000000000000 DUP3 AND SWAP1 POP SWAP2 SWAP1 POP JUMP JUMPDEST PUSH1 0x0 PUSH20 0xFFFFFFFFFFFFFFFFFFFFFFFFFFFFFFFFFFFFFFFF DUP3 AND SWAP1 POP SWAP2 SWAP1 POP JUMP JUMPDEST PUSH1 0x0 DUP2 SWAP1 POP SWAP2 SWAP1 POP JUMP JUMPDEST PUSH1 0x0 PUSH1 0xFF DUP3 AND SWAP1 POP SWAP2 SWAP1 POP JUMP JUMPDEST DUP3 DUP2 DUP4 CALLDATACOPY PUSH1 0x0 DUP4 DUP4 ADD MSTORE POP POP POP JUMP JUMPDEST PUSH1 0x0 JUMPDEST DUP4 DUP2 LT ISZERO PUSH2 0x268F JUMPI DUP1 DUP3 ADD MLOAD DUP2 DUP5 ADD MSTORE PUSH1 0x20 DUP2 ADD SWAP1 POP PUSH2 0x2674 JUMP JUMPDEST DUP4 DUP2 GT ISZERO PUSH2 0x269E JUMPI PUSH1 0x0 DUP5 DUP5 ADD MSTORE JUMPDEST POP POP POP POP JUMP JUMPDEST PUSH1 0x0 PUSH1 0x2 DUP3 DIV SWAP1 POP PUSH1 0x1 DUP3 AND DUP1 PUSH2 0x26BC JUMPI PUSH1 0x7F DUP3 AND SWAP2 POP JUMPDEST PUSH1 0x20 DUP3 LT DUP2 EQ ISZERO PUSH2 0x26D0 JUMPI PUSH2 0x26CF PUSH2 0x27DF JUMP JUMPDEST JUMPDEST POP SWAP2 SWAP1 POP JUMP JUMPDEST PUSH2 0x26DF DUP3 PUSH2 0x2880 JUMP JUMPDEST DUP2 ADD DUP2 DUP2 LT PUSH8 0xFFFFFFFFFFFFFFFF DUP3 GT OR ISZERO PUSH2 0x26FE JUMPI PUSH2 0x26FD PUSH2 0x283D JUMP JUMPDEST JUMPDEST DUP1 PUSH1 0x40 MSTORE POP POP POP JUMP JUMPDEST PUSH1 0x0 PUSH2 0x2712 DUP3 PUSH2 0x264B JUMP JUMPDEST SWAP2 POP PUSH32 0xFFFFFFFFFFFFFFFFFFFFFFFFFFFFFFFFFFFFFFFFFFFFFFFFFFFFFFFFFFFFFFFF DUP3 EQ ISZERO PUSH2 0x2745 JUMPI PUSH2 0x2744 PUSH2 0x2781 JUMP JUMPDEST JUMPDEST PUSH1 0x1 DUP3 ADD SWAP1 POP SWAP2 SWAP1 POP JUMP JUMPDEST PUSH1 0x0 PUSH2 0x275B DUP3 PUSH2 0x264B JUMP JUMPDEST SWAP2 POP PUSH2 0x2766 DUP4 PUSH2 0x264B JUMP JUMPDEST SWAP3 POP DUP3 PUSH2 0x2776 JUMPI PUSH2 0x2775 PUSH2 0x27B0 JUMP JUMPDEST JUMPDEST DUP3 DUP3 MOD SWAP1 POP SWAP3 SWAP2 POP POP JUMP JUMPDEST PUSH32 0x4E487B7100000000000000000000000000000000000000000000000000000000 PUSH1 0x0 MSTORE PUSH1 0x11 PUSH1 0x4 MSTORE PUSH1 0x24 PUSH1 0x0 REVERT JUMPDEST PUSH32 0x4E487B7100000000000000000000000000000000000000000000000000000000 PUSH1 0x0 MSTORE PUSH1 0x12 PUSH1 0x4 MSTORE PUSH1 0x24 PUSH1 0x0 REVERT JUMPDEST PUSH32 0x4E487B7100000000000000000000000000000000000000000000000000000000 PUSH1 0x0 MSTORE PUSH1 0x22 PUSH1 0x4 MSTORE PUSH1 0x24 PUSH1 0x0 REVERT JUMPDEST PUSH32 0x4E487B7100000000000000000000000000000000000000000000000000000000 PUSH1 0x0 MSTORE PUSH1 0x32 PUSH1 0x4 MSTORE PUSH1 0x24 PUSH1 0x0 REVERT JUMPDEST PUSH32 0x4E487B7100000000000000000000000000000000000000000000000000000000 PUSH1 0x0 MSTORE PUSH1 0x41 PUSH1 0x4 MSTORE PUSH1 0x24 PUSH1 0x0 REVERT JUMPDEST PUSH1 0x0 DUP1 REVERT JUMPDEST PUSH1 0x0 DUP1 REVERT JUMPDEST PUSH1 0x0 DUP1 REVERT JUMPDEST PUSH1 0x0 DUP1 REVERT JUMPDEST PUSH1 0x0 PUSH1 0x1F NOT PUSH1 0x1F DUP4 ADD AND SWAP1 POP SWAP2 SWAP1 POP JUMP JUMPDEST PUSH32 0x4552433732313A207472616E7366657220746F206E6F6E204552433732315265 PUSH1 0x0 DUP3 ADD MSTORE PUSH32 0x63656976657220696D706C656D656E7465720000000000000000000000000000 PUSH1 0x20 DUP3 ADD MSTORE POP JUMP JUMPDEST PUSH32 0x4552433732313A20746F6B656E20616C7265616479206D696E74656400000000 PUSH1 0x0 DUP3 ADD MSTORE POP JUMP JUMPDEST PUSH32 0x4552433732313A207472616E7366657220746F20746865207A65726F20616464 PUSH1 0x0 DUP3 ADD MSTORE PUSH32 0x7265737300000000000000000000000000000000000000000000000000000000 PUSH1 0x20 DUP3 ADD MSTORE POP JUMP JUMPDEST PUSH32 0x4552433732313A20617070726F766520746F2063616C6C657200000000000000 PUSH1 0x0 DUP3 ADD MSTORE POP JUMP JUMPDEST PUSH32 0x4552433732313A206F70657261746F7220717565727920666F72206E6F6E6578 PUSH1 0x0 DUP3 ADD MSTORE PUSH32 0x697374656E7420746F6B656E0000000000000000000000000000000000000000 PUSH1 0x20 DUP3 ADD MSTORE POP JUMP JUMPDEST PUSH32 0x4552433732313A20617070726F76652063616C6C6572206973206E6F74206F77 PUSH1 0x0 DUP3 ADD MSTORE PUSH32 0x6E6572206E6F7220617070726F76656420666F7220616C6C0000000000000000 PUSH1 0x20 DUP3 ADD MSTORE POP JUMP JUMPDEST PUSH32 0x4552433732313A2062616C616E636520717565727920666F7220746865207A65 PUSH1 0x0 DUP3 ADD MSTORE PUSH32 0x726F206164647265737300000000000000000000000000000000000000000000 PUSH1 0x20 DUP3 ADD MSTORE POP JUMP JUMPDEST PUSH32 0x4552433732313A206F776E657220717565727920666F72206E6F6E6578697374 PUSH1 0x0 DUP3 ADD MSTORE PUSH32 0x656E7420746F6B656E0000000000000000000000000000000000000000000000 PUSH1 0x20 DUP3 ADD MSTORE POP JUMP JUMPDEST PUSH32 0x4552433732313A206D696E7420746F20746865207A65726F2061646472657373 PUSH1 0x0 DUP3 ADD MSTORE POP JUMP JUMPDEST PUSH32 0x4552433732313A20617070726F76656420717565727920666F72206E6F6E6578 PUSH1 0x0 DUP3 ADD MSTORE PUSH32 0x697374656E7420746F6B656E0000000000000000000000000000000000000000 PUSH1 0x20 DUP3 ADD MSTORE POP JUMP JUMPDEST PUSH32 0x4552433732313A207472616E73666572206F6620746F6B656E20746861742069 PUSH1 0x0 DUP3 ADD MSTORE PUSH32 0x73206E6F74206F776E0000000000000000000000000000000000000000000000 PUSH1 0x20 DUP3 ADD MSTORE POP JUMP JUMPDEST PUSH32 0x4552433732314D657461646174613A2055524920717565727920666F72206E6F PUSH1 0x0 DUP3 ADD MSTORE PUSH32 0x6E6578697374656E7420746F6B656E0000000000000000000000000000000000 PUSH1 0x20 DUP3 ADD MSTORE POP JUMP JUMPDEST PUSH32 0x43727970746F4B6E69676874732063616E206E6F206C6F6E676572206265206D PUSH1 0x0 DUP3 ADD MSTORE PUSH32 0x696E7465642E0000000000000000000000000000000000000000000000000000 PUSH1 0x20 DUP3 ADD MSTORE POP JUMP JUMPDEST PUSH32 0x4552433732313A20617070726F76616C20746F2063757272656E74206F776E65 PUSH1 0x0 DUP3 ADD MSTORE PUSH32 0x7200000000000000000000000000000000000000000000000000000000000000 PUSH1 0x20 DUP3 ADD MSTORE POP JUMP JUMPDEST PUSH32 0x4552433732313A207472616E736665722063616C6C6572206973206E6F74206F PUSH1 0x0 DUP3 ADD MSTORE PUSH32 0x776E6572206E6F7220617070726F766564000000000000000000000000000000 PUSH1 0x20 DUP3 ADD MSTORE POP JUMP JUMPDEST PUSH32 0x56616C75652073656E74206D757374206D61746368206D696E7420636F73742E PUSH1 0x0 DUP3 ADD MSTORE POP JUMP JUMPDEST PUSH2 0x2CF2 DUP2 PUSH2 0x25E1 JUMP JUMPDEST DUP2 EQ PUSH2 0x2CFD JUMPI PUSH1 0x0 DUP1 REVERT JUMPDEST POP JUMP JUMPDEST PUSH2 0x2D09 DUP2 PUSH2 0x25F3 JUMP JUMPDEST DUP2 EQ PUSH2 0x2D14 JUMPI PUSH1 0x0 DUP1 REVERT JUMPDEST POP JUMP JUMPDEST PUSH2 0x2D20 DUP2 PUSH2 0x25FF JUMP JUMPDEST DUP2 EQ PUSH2 0x2D2B JUMPI PUSH1 0x0 DUP1 REVERT JUMPDEST POP JUMP JUMPDEST PUSH2 0x2D37 DUP2 PUSH2 0x264B JUMP JUMPDEST DUP2 EQ PUSH2 0x2D42 JUMPI PUSH1 0x0 DUP1 REVERT JUMPDEST POP JUMP INVALID LOG2 PUSH5 0x6970667358 0x22 SLT KECCAK256 0xCB 0xAD ORIGIN EXTCODEHASH SSTORE 0xED LOG0 0xE7 SELFBALANCE 0xD0 SLOAD CALLVALUE 0x4C DUP16 DUP16 DUP16 0xD4 PUSH10 0x883A5D8AB3B683BE4FB3 0xD5 PUSH25 0x5C2264736F6C63430008070033000000000000000000000000 "
		},
		"gasEstimates": {
			"creation": {
				"codeDepositCost": "2328600",
				"executionCost": "infinite",
				"totalCost": "infinite"
			},
			"external": {
				"approve(address,uint256)": "infinite",
				"attack(uint256,uint256)": "infinite",
				"balanceOf(address)": "2902",
				"createCollectible()": "infinite",
				"getApproved(uint256)": "5228",
				"isApprovedForAll(address,address)": "infinite",
				"knights(uint256)": "infinite",
				"mintCost()": "2473",
				"mintSize()": "2518",
				"name()": "infinite",
				"ownerOf(uint256)": "3088",
				"safeTransferFrom(address,address,uint256)": "infinite",
				"safeTransferFrom(address,address,uint256,bytes)": "infinite",
				"setApprovalForAll(address,bool)": "infinite",
				"supportsInterface(bytes4)": "797",
				"symbol()": "infinite",
				"tokenURI(uint256)": "3395",
				"transferFrom(address,address,uint256)": "infinite"
			}
		},
		"methodIdentifiers": {
			"approve(address,uint256)": "095ea7b3",
			"attack(uint256,uint256)": "e1fa7638",
			"balanceOf(address)": "70a08231",
			"createCollectible()": "1e661710",
			"getApproved(uint256)": "081812fc",
			"isApprovedForAll(address,address)": "e985e9c5",
			"knights(uint256)": "8c1379cc",
			"mintCost()": "bdb4b848",
			"mintSize()": "4a0ef768",
			"name()": "06fdde03",
			"ownerOf(uint256)": "6352211e",
			"safeTransferFrom(address,address,uint256)": "42842e0e",
			"safeTransferFrom(address,address,uint256,bytes)": "b88d4fde",
			"setApprovalForAll(address,bool)": "a22cb465",
			"supportsInterface(bytes4)": "01ffc9a7",
			"symbol()": "95d89b41",
			"tokenURI(uint256)": "c87b56dd",
			"transferFrom(address,address,uint256)": "23b872dd"
		}
	},
	"abi": [
		{
			"inputs": [
				{
					"internalType": "uint256",
					"name": "_mintSize",
					"type": "uint256"
				}
			],
			"stateMutability": "nonpayable",
			"type": "constructor"
		},
		{
			"anonymous": false,
			"inputs": [
				{
					"indexed": true,
					"internalType": "address",
					"name": "owner",
					"type": "address"
				},
				{
					"indexed": true,
					"internalType": "address",
					"name": "approved",
					"type": "address"
				},
				{
					"indexed": true,
					"internalType": "uint256",
					"name": "tokenId",
					"type": "uint256"
				}
			],
			"name": "Approval",
			"type": "event"
		},
		{
			"anonymous": false,
			"inputs": [
				{
					"indexed": true,
					"internalType": "address",
					"name": "owner",
					"type": "address"
				},
				{
					"indexed": true,
					"internalType": "address",
					"name": "operator",
					"type": "address"
				},
				{
					"indexed": false,
					"internalType": "bool",
					"name": "approved",
					"type": "bool"
				}
			],
			"name": "ApprovalForAll",
			"type": "event"
		},
		{
			"anonymous": false,
			"inputs": [
				{
					"indexed": true,
					"internalType": "address",
					"name": "from",
					"type": "address"
				},
				{
					"indexed": true,
					"internalType": "address",
					"name": "to",
					"type": "address"
				},
				{
					"indexed": true,
					"internalType": "uint256",
					"name": "tokenId",
					"type": "uint256"
				}
			],
			"name": "Transfer",
			"type": "event"
		},
		{
			"inputs": [
				{
					"internalType": "address",
					"name": "to",
					"type": "address"
				},
				{
					"internalType": "uint256",
					"name": "tokenId",
					"type": "uint256"
				}
			],
			"name": "approve",
			"outputs": [],
			"stateMutability": "nonpayable",
			"type": "function"
		},
		{
			"inputs": [
				{
					"internalType": "uint256",
					"name": "_attackerKnightId",
					"type": "uint256"
				},
				{
					"internalType": "uint256",
					"name": "_receiverKnightId",
					"type": "uint256"
				}
			],
			"name": "attack",
			"outputs": [],
			"stateMutability": "nonpayable",
			"type": "function"
		},
		{
			"inputs": [
				{
					"internalType": "address",
					"name": "owner",
					"type": "address"
				}
			],
			"name": "balanceOf",
			"outputs": [
				{
					"internalType": "uint256",
					"name": "",
					"type": "uint256"
				}
			],
			"stateMutability": "view",
			"type": "function"
		},
		{
			"inputs": [],
			"name": "createCollectible",
			"outputs": [
				{
					"internalType": "uint256",
					"name": "",
					"type": "uint256"
				}
			],
			"stateMutability": "payable",
			"type": "function"
		},
		{
			"inputs": [
				{
					"internalType": "uint256",
					"name": "tokenId",
					"type": "uint256"
				}
			],
			"name": "getApproved",
			"outputs": [
				{
					"internalType": "address",
					"name": "",
					"type": "address"
				}
			],
			"stateMutability": "view",
			"type": "function"
		},
		{
			"inputs": [
				{
					"internalType": "address",
					"name": "owner",
					"type": "address"
				},
				{
					"internalType": "address",
					"name": "operator",
					"type": "address"
				}
			],
			"name": "isApprovedForAll",
			"outputs": [
				{
					"internalType": "bool",
					"name": "",
					"type": "bool"
				}
			],
			"stateMutability": "view",
			"type": "function"
		},
		{
			"inputs": [
				{
					"internalType": "uint256",
					"name": "",
					"type": "uint256"
				}
			],
			"name": "knights",
			"outputs": [
				{
					"internalType": "uint256",
					"name": "id",
					"type": "uint256"
				},
				{
					"internalType": "uint256",
					"name": "dna",
					"type": "uint256"
				},
				{
					"internalType": "uint256",
					"name": "experience",
					"type": "uint256"
				},
				{
					"internalType": "uint256",
					"name": "attackLevel",
					"type": "uint256"
				},
				{
					"internalType": "uint256",
					"name": "weaponId",
					"type": "uint256"
				},
				{
					"internalType": "uint8",
					"name": "energy",
					"type": "uint8"
				},
				{
					"internalType": "address",
					"name": "owner",
					"type": "address"
				}
			],
			"stateMutability": "view",
			"type": "function"
		},
		{
			"inputs": [],
			"name": "mintCost",
			"outputs": [
				{
					"internalType": "uint256",
					"name": "",
					"type": "uint256"
				}
			],
			"stateMutability": "view",
			"type": "function"
		},
		{
			"inputs": [],
			"name": "mintSize",
			"outputs": [
				{
					"internalType": "uint256",
					"name": "",
					"type": "uint256"
				}
			],
			"stateMutability": "view",
			"type": "function"
		},
		{
			"inputs": [],
			"name": "name",
			"outputs": [
				{
					"internalType": "string",
					"name": "",
					"type": "string"
				}
			],
			"stateMutability": "view",
			"type": "function"
		},
		{
			"inputs": [
				{
					"internalType": "uint256",
					"name": "tokenId",
					"type": "uint256"
				}
			],
			"name": "ownerOf",
			"outputs": [
				{
					"internalType": "address",
					"name": "",
					"type": "address"
				}
			],
			"stateMutability": "view",
			"type": "function"
		},
		{
			"inputs": [
				{
					"internalType": "address",
					"name": "from",
					"type": "address"
				},
				{
					"internalType": "address",
					"name": "to",
					"type": "address"
				},
				{
					"internalType": "uint256",
					"name": "tokenId",
					"type": "uint256"
				}
			],
			"name": "safeTransferFrom",
			"outputs": [],
			"stateMutability": "nonpayable",
			"type": "function"
		},
		{
			"inputs": [
				{
					"internalType": "address",
					"name": "from",
					"type": "address"
				},
				{
					"internalType": "address",
					"name": "to",
					"type": "address"
				},
				{
					"internalType": "uint256",
					"name": "tokenId",
					"type": "uint256"
				},
				{
					"internalType": "bytes",
					"name": "_data",
					"type": "bytes"
				}
			],
			"name": "safeTransferFrom",
			"outputs": [],
			"stateMutability": "nonpayable",
			"type": "function"
		},
		{
			"inputs": [
				{
					"internalType": "address",
					"name": "operator",
					"type": "address"
				},
				{
					"internalType": "bool",
					"name": "approved",
					"type": "bool"
				}
			],
			"name": "setApprovalForAll",
			"outputs": [],
			"stateMutability": "nonpayable",
			"type": "function"
		},
		{
			"inputs": [
				{
					"internalType": "bytes4",
					"name": "interfaceId",
					"type": "bytes4"
				}
			],
			"name": "supportsInterface",
			"outputs": [
				{
					"internalType": "bool",
					"name": "",
					"type": "bool"
				}
			],
			"stateMutability": "view",
			"type": "function"
		},
		{
			"inputs": [],
			"name": "symbol",
			"outputs": [
				{
					"internalType": "string",
					"name": "",
					"type": "string"
				}
			],
			"stateMutability": "view",
			"type": "function"
		},
		{
			"inputs": [
				{
					"internalType": "uint256",
					"name": "tokenId",
					"type": "uint256"
				}
			],
			"name": "tokenURI",
			"outputs": [
				{
					"internalType": "string",
					"name": "",
					"type": "string"
				}
			],
			"stateMutability": "view",
			"type": "function"
		},
		{
			"inputs": [
				{
					"internalType": "address",
					"name": "from",
					"type": "address"
				},
				{
					"internalType": "address",
					"name": "to",
					"type": "address"
				},
				{
					"internalType": "uint256",
					"name": "tokenId",
					"type": "uint256"
				}
			],
			"name": "transferFrom",
			"outputs": [],
			"stateMutability": "nonpayable",
			"type": "function"
		}
	]
}