{
	"data": {
		"bytecode": {
			"linkReferences": {},
			"object": "610481610053600b82828239805160001a607314610046577f4e487b7100000000000000000000000000000000000000000000000000000000600052600060045260246000fd5b30600052607381538281f3fe73000000000000000000000000000000000000000030146080604052600436106100405760003560e01c80637bc6f9d814610045578063d9fbc38c1461006e575b600080fd5b81801561005157600080fd5b5061006c600480360381019061006791906101e3565b61008c565b005b610076610198565b60405161008391906102f5565b60405180910390f35b610094610198565b60ff168260050160009054906101000a900460ff1660ff1610156100ed576040517f08c379a00000000000000000000000000000000000000000000000000000000081526004016100e490610282565b60405180910390fd5b61011b6100f8610198565b8360050160009054906101000a900460ff1660ff166101a190919063ffffffff16565b8260050160006101000a81548160ff021916908360ff1602179055507fcf58e22442a5d77f27d6550d7047abe0327b9d7547121475c6664bfaa7c2f9a2826000015482600001548460050160009054906101000a900460ff166001866003015460405161018c9594939291906102a2565b60405180910390a15050565b60006001905090565b60008260ff168260ff1611156101ba576101b9610382565b5b81836101c69190610321565b905092915050565b6000813590506101dd81610434565b92915050565b600080604083850312156101fa576101f96103e0565b5b6000610208858286016101ce565b9250506020610219858286016101ce565b9150509250929050565b61022c81610355565b82525050565b600061023f602883610310565b915061024a826103e5565b604082019050919050565b61025e8161036b565b82525050565b61026d81610375565b82525050565b61027c81610375565b82525050565b6000602082019050818103600083015261029b81610232565b9050919050565b600060a0820190506102b76000830188610255565b6102c46020830187610255565b6102d16040830186610264565b6102de6060830185610223565b6102eb6080830184610255565b9695505050505050565b600060208201905061030a6000830184610273565b92915050565b600082825260208201905092915050565b600061032c82610375565b915061033783610375565b92508282101561034a576103496103b1565b5b828203905092915050565b60008115159050919050565b6000819050919050565b6000819050919050565b600060ff82169050919050565b7f4e487b7100000000000000000000000000000000000000000000000000000000600052600160045260246000fd5b7f4e487b7100000000000000000000000000000000000000000000000000000000600052601160045260246000fd5b600080fd5b7f5468652061747461636b696e67206b6e6967687420686173206e6f206d6f726560008201527f20656e657267792e000000000000000000000000000000000000000000000000602082015250565b61043d81610361565b811461044857600080fd5b5056fea2646970667358221220e52f8ff23726f0697d89cc11dc0b468d4d67f8b52658658621a61486a99fddde64736f6c63430008070033",
			"opcodes": "PUSH2 0x481 PUSH2 0x53 PUSH1 0xB DUP3 DUP3 DUP3 CODECOPY DUP1 MLOAD PUSH1 0x0 BYTE PUSH1 0x73 EQ PUSH2 0x46 JUMPI PUSH32 0x4E487B7100000000000000000000000000000000000000000000000000000000 PUSH1 0x0 MSTORE PUSH1 0x0 PUSH1 0x4 MSTORE PUSH1 0x24 PUSH1 0x0 REVERT JUMPDEST ADDRESS PUSH1 0x0 MSTORE PUSH1 0x73 DUP2 MSTORE8 DUP3 DUP2 RETURN INVALID PUSH20 0x0 ADDRESS EQ PUSH1 0x80 PUSH1 0x40 MSTORE PUSH1 0x4 CALLDATASIZE LT PUSH2 0x40 JUMPI PUSH1 0x0 CALLDATALOAD PUSH1 0xE0 SHR DUP1 PUSH4 0x7BC6F9D8 EQ PUSH2 0x45 JUMPI DUP1 PUSH4 0xD9FBC38C EQ PUSH2 0x6E JUMPI JUMPDEST PUSH1 0x0 DUP1 REVERT JUMPDEST DUP2 DUP1 ISZERO PUSH2 0x51 JUMPI PUSH1 0x0 DUP1 REVERT JUMPDEST POP PUSH2 0x6C PUSH1 0x4 DUP1 CALLDATASIZE SUB DUP2 ADD SWAP1 PUSH2 0x67 SWAP2 SWAP1 PUSH2 0x1E3 JUMP JUMPDEST PUSH2 0x8C JUMP JUMPDEST STOP JUMPDEST PUSH2 0x76 PUSH2 0x198 JUMP JUMPDEST PUSH1 0x40 MLOAD PUSH2 0x83 SWAP2 SWAP1 PUSH2 0x2F5 JUMP JUMPDEST PUSH1 0x40 MLOAD DUP1 SWAP2 SUB SWAP1 RETURN JUMPDEST PUSH2 0x94 PUSH2 0x198 JUMP JUMPDEST PUSH1 0xFF AND DUP3 PUSH1 0x5 ADD PUSH1 0x0 SWAP1 SLOAD SWAP1 PUSH2 0x100 EXP SWAP1 DIV PUSH1 0xFF AND PUSH1 0xFF AND LT ISZERO PUSH2 0xED JUMPI PUSH1 0x40 MLOAD PUSH32 0x8C379A000000000000000000000000000000000000000000000000000000000 DUP2 MSTORE PUSH1 0x4 ADD PUSH2 0xE4 SWAP1 PUSH2 0x282 JUMP JUMPDEST PUSH1 0x40 MLOAD DUP1 SWAP2 SUB SWAP1 REVERT JUMPDEST PUSH2 0x11B PUSH2 0xF8 PUSH2 0x198 JUMP JUMPDEST DUP4 PUSH1 0x5 ADD PUSH1 0x0 SWAP1 SLOAD SWAP1 PUSH2 0x100 EXP SWAP1 DIV PUSH1 0xFF AND PUSH1 0xFF AND PUSH2 0x1A1 SWAP1 SWAP2 SWAP1 PUSH4 0xFFFFFFFF AND JUMP JUMPDEST DUP3 PUSH1 0x5 ADD PUSH1 0x0 PUSH2 0x100 EXP DUP2 SLOAD DUP2 PUSH1 0xFF MUL NOT AND SWAP1 DUP4 PUSH1 0xFF AND MUL OR SWAP1 SSTORE POP PUSH32 0xCF58E22442A5D77F27D6550D7047ABE0327B9D7547121475C6664BFAA7C2F9A2 DUP3 PUSH1 0x0 ADD SLOAD DUP3 PUSH1 0x0 ADD SLOAD DUP5 PUSH1 0x5 ADD PUSH1 0x0 SWAP1 SLOAD SWAP1 PUSH2 0x100 EXP SWAP1 DIV PUSH1 0xFF AND PUSH1 0x1 DUP7 PUSH1 0x3 ADD SLOAD PUSH1 0x40 MLOAD PUSH2 0x18C SWAP6 SWAP5 SWAP4 SWAP3 SWAP2 SWAP1 PUSH2 0x2A2 JUMP JUMPDEST PUSH1 0x40 MLOAD DUP1 SWAP2 SUB SWAP1 LOG1 POP POP JUMP JUMPDEST PUSH1 0x0 PUSH1 0x1 SWAP1 POP SWAP1 JUMP JUMPDEST PUSH1 0x0 DUP3 PUSH1 0xFF AND DUP3 PUSH1 0xFF AND GT ISZERO PUSH2 0x1BA JUMPI PUSH2 0x1B9 PUSH2 0x382 JUMP JUMPDEST JUMPDEST DUP2 DUP4 PUSH2 0x1C6 SWAP2 SWAP1 PUSH2 0x321 JUMP JUMPDEST SWAP1 POP SWAP3 SWAP2 POP POP JUMP JUMPDEST PUSH1 0x0 DUP2 CALLDATALOAD SWAP1 POP PUSH2 0x1DD DUP2 PUSH2 0x434 JUMP JUMPDEST SWAP3 SWAP2 POP POP JUMP JUMPDEST PUSH1 0x0 DUP1 PUSH1 0x40 DUP4 DUP6 SUB SLT ISZERO PUSH2 0x1FA JUMPI PUSH2 0x1F9 PUSH2 0x3E0 JUMP JUMPDEST JUMPDEST PUSH1 0x0 PUSH2 0x208 DUP6 DUP3 DUP7 ADD PUSH2 0x1CE JUMP JUMPDEST SWAP3 POP POP PUSH1 0x20 PUSH2 0x219 DUP6 DUP3 DUP7 ADD PUSH2 0x1CE JUMP JUMPDEST SWAP2 POP POP SWAP3 POP SWAP3 SWAP1 POP JUMP JUMPDEST PUSH2 0x22C DUP2 PUSH2 0x355 JUMP JUMPDEST DUP3 MSTORE POP POP JUMP JUMPDEST PUSH1 0x0 PUSH2 0x23F PUSH1 0x28 DUP4 PUSH2 0x310 JUMP JUMPDEST SWAP2 POP PUSH2 0x24A DUP3 PUSH2 0x3E5 JUMP JUMPDEST PUSH1 0x40 DUP3 ADD SWAP1 POP SWAP2 SWAP1 POP JUMP JUMPDEST PUSH2 0x25E DUP2 PUSH2 0x36B JUMP JUMPDEST DUP3 MSTORE POP POP JUMP JUMPDEST PUSH2 0x26D DUP2 PUSH2 0x375 JUMP JUMPDEST DUP3 MSTORE POP POP JUMP JUMPDEST PUSH2 0x27C DUP2 PUSH2 0x375 JUMP JUMPDEST DUP3 MSTORE POP POP JUMP JUMPDEST PUSH1 0x0 PUSH1 0x20 DUP3 ADD SWAP1 POP DUP2 DUP2 SUB PUSH1 0x0 DUP4 ADD MSTORE PUSH2 0x29B DUP2 PUSH2 0x232 JUMP JUMPDEST SWAP1 POP SWAP2 SWAP1 POP JUMP JUMPDEST PUSH1 0x0 PUSH1 0xA0 DUP3 ADD SWAP1 POP PUSH2 0x2B7 PUSH1 0x0 DUP4 ADD DUP9 PUSH2 0x255 JUMP JUMPDEST PUSH2 0x2C4 PUSH1 0x20 DUP4 ADD DUP8 PUSH2 0x255 JUMP JUMPDEST PUSH2 0x2D1 PUSH1 0x40 DUP4 ADD DUP7 PUSH2 0x264 JUMP JUMPDEST PUSH2 0x2DE PUSH1 0x60 DUP4 ADD DUP6 PUSH2 0x223 JUMP JUMPDEST PUSH2 0x2EB PUSH1 0x80 DUP4 ADD DUP5 PUSH2 0x255 JUMP JUMPDEST SWAP7 SWAP6 POP POP POP POP POP POP JUMP JUMPDEST PUSH1 0x0 PUSH1 0x20 DUP3 ADD SWAP1 POP PUSH2 0x30A PUSH1 0x0 DUP4 ADD DUP5 PUSH2 0x273 JUMP JUMPDEST SWAP3 SWAP2 POP POP JUMP JUMPDEST PUSH1 0x0 DUP3 DUP3 MSTORE PUSH1 0x20 DUP3 ADD SWAP1 POP SWAP3 SWAP2 POP POP JUMP JUMPDEST PUSH1 0x0 PUSH2 0x32C DUP3 PUSH2 0x375 JUMP JUMPDEST SWAP2 POP PUSH2 0x337 DUP4 PUSH2 0x375 JUMP JUMPDEST SWAP3 POP DUP3 DUP3 LT ISZERO PUSH2 0x34A JUMPI PUSH2 0x349 PUSH2 0x3B1 JUMP JUMPDEST JUMPDEST DUP3 DUP3 SUB SWAP1 POP SWAP3 SWAP2 POP POP JUMP JUMPDEST PUSH1 0x0 DUP2 ISZERO ISZERO SWAP1 POP SWAP2 SWAP1 POP JUMP JUMPDEST PUSH1 0x0 DUP2 SWAP1 POP SWAP2 SWAP1 POP JUMP JUMPDEST PUSH1 0x0 DUP2 SWAP1 POP SWAP2 SWAP1 POP JUMP JUMPDEST PUSH1 0x0 PUSH1 0xFF DUP3 AND SWAP1 POP SWAP2 SWAP1 POP JUMP JUMPDEST PUSH32 0x4E487B7100000000000000000000000000000000000000000000000000000000 PUSH1 0x0 MSTORE PUSH1 0x1 PUSH1 0x4 MSTORE PUSH1 0x24 PUSH1 0x0 REVERT JUMPDEST PUSH32 0x4E487B7100000000000000000000000000000000000000000000000000000000 PUSH1 0x0 MSTORE PUSH1 0x11 PUSH1 0x4 MSTORE PUSH1 0x24 PUSH1 0x0 REVERT JUMPDEST PUSH1 0x0 DUP1 REVERT JUMPDEST PUSH32 0x5468652061747461636B696E67206B6E6967687420686173206E6F206D6F7265 PUSH1 0x0 DUP3 ADD MSTORE PUSH32 0x20656E657267792E000000000000000000000000000000000000000000000000 PUSH1 0x20 DUP3 ADD MSTORE POP JUMP JUMPDEST PUSH2 0x43D DUP2 PUSH2 0x361 JUMP JUMPDEST DUP2 EQ PUSH2 0x448 JUMPI PUSH1 0x0 DUP1 REVERT JUMPDEST POP JUMP INVALID LOG2 PUSH5 0x6970667358 0x22 SLT KECCAK256 0xE5 0x2F DUP16 CALLCODE CALLDATACOPY 0x26 CREATE PUSH10 0x7D89CC11DC0B468D4D67 0xF8 0xB5 0x26 PC PUSH6 0x8621A61486A9 SWAP16 0xDD 0xDE PUSH5 0x736F6C6343 STOP ADDMOD SMOD STOP CALLER "
		},
		"gasEstimates": {
			"creation": {
				"codeDepositCost": "230600",
				"executionCost": "300",
				"totalCost": "230900"
			},
			"external": {
				"attack(KnightLib.Knight storage,KnightLib.Knight storage)": "infinite",
				"attackEnergyConsumption()": "327"
			}
		},
		"methodIdentifiers": {
			"attack(KnightLib.Knight storage,KnightLib.Knight storage)": "7bc6f9d8",
			"attackEnergyConsumption()": "d9fbc38c"
		}
	},
	"abi": [
		{
			"anonymous": false,
			"inputs": [
				{
					"indexed": false,
					"internalType": "uint256",
					"name": "attackerId",
					"type": "uint256"
				},
				{
					"indexed": false,
					"internalType": "uint256",
					"name": "receiverId",
					"type": "uint256"
				},
				{
					"indexed": false,
					"internalType": "uint8",
					"name": "energyLeft",
					"type": "uint8"
				},
				{
					"indexed": false,
					"internalType": "bool",
					"name": "wasSuccessful",
					"type": "bool"
				},
				{
					"indexed": false,
					"internalType": "uint256",
					"name": "damage",
					"type": "uint256"
				}
			],
			"name": "Attack",
			"type": "event"
		},
		{
			"inputs": [],
			"name": "attackEnergyConsumption",
			"outputs": [
				{
					"internalType": "uint8",
					"name": "",
					"type": "uint8"
				}
			],
			"stateMutability": "pure",
			"type": "function"
		}
	]
}